{
  "transactions": [
    {
      "hash": "0xb67b247e63b0563fcf34ce7c7097bfaef57a9705b03b22a08a579e463404895a",
      "transactionType": "CREATE",
      "contractName": "PoolTestHelper",
      "contractAddress": "0x0f8113efa5527346978534192a76c94a567cae42",
      "function": null,
      "arguments": [
        "0x00B036B58a818B1BC34d502D3fE730Db729e62AC"
      ],
      "transaction": {
        "from": "0x25f75573799a3aa37760d6be4b862aca70599b49",
        "gas": "0x1a4b69",
        "value": "0x0",
        "input": "0x60a034608f57601f6117a338819003918201601f19168301916001600160401b03831184841017609357808492602094604052833981010312608f57516001600160a01b0381168103608f576080526040516116fb90816100a8823960805181818160ae01528181610270015281816103ef01528181610804015281816110ff015281816111c7015261123b0152f35b5f80fd5b634e487b7160e01b5f52604160045260245ffdfe6080604052600436101561001a575b3615610018575f80fd5b005b5f3560e01c806391dd73461461062d578063b49231b31461041e578063dc4c90d3146103da578063f6d8477f1461013c5763f70204050361000e57346101255760c03660031901126101255761006f36610719565b60a4356001600160a01b038116908190036101255760405163313b65df60e11b8152916100a0906004840190610e8c565b60a482015260208160c4815f7f00000000000000000000000000000000000000000000000000000000000000006001600160a01b03165af18015610131575f906100f3575b6020906040519060020b8152f35b506020813d602011610129575b8161010d602093836106e1565b810103126101255761012060209161100c565b6100e5565b5f80fd5b3d9150610100565b6040513d5f823e3d90fd5b34610125576101403660031901126101255761015736610719565b60a435908160020b8092036101255760c435908160020b809203610125576101f1926101ff92610185610702565b91610197604051946020860190610e8c565b60c084015260e083015260e435610100830152610104356101208301526001600160a01b03166101408083019190915281526101d5610160826106e1565b6040519283915f602084015260408084015260608301906106a2565b03601f1981018352826106e1565b80516001600160401b0381116103c6576102195f54610ecf565b601f811161035f575b50602091601f82116001146102f6579181925f926102eb575b50508160011b915f199060031b1c1916175f555b6040516348c8949160e01b81525f818061026b60048201610f72565b0381837f00000000000000000000000000000000000000000000000000000000000000006001600160a01b03165af1908115610131575f916102c9575b50602081519181808201938492010103126101255760209051604051908152f35b6102e591503d805f833e6102dd81836106e1565b810190610f4d565b816102a8565b01519050828061023b565b601f198216925f80525f805160206116a6833981519152915f5b8581106103475750836001951061032f575b505050811b015f5561024f565b01515f1960f88460031b161c19169055828080610322565b91926020600181928685015181550194019201610310565b5f8052601f820160051c5f805160206116a68339815191520190602083106103b1575b601f0160051c5f805160206116a683398151915201905b8181106103a65750610222565b5f8155600101610399565b5f805160206116a68339815191529150610382565b634e487b7160e01b5f52604160045260245ffd5b34610125575f366003190112610125576040517f00000000000000000000000000000000000000000000000000000000000000006001600160a01b03168152602090f35b34610125576101403660031901126101255761043936610719565b60a4358015158091036101255760e4356001600160a01b038116908190036101255761010435906001600160401b038211610125576101f19361050c936104cf6104ef9361048e6104a89636906004016107bb565b90610497610702565b936040519788966020880190610e8c565b60c086015260c43560e08601526101008501526101406101208501526101608401906106a2565b6001600160a01b039190911661014083015203601f1981018352826106e1565b6040519283916001602084015260408084015260608301906106a2565b80516001600160401b0381116103c6576105265f54610ecf565b601f81116105c6575b50602091601f8211600114610576579181925f926102eb5750508160011b915f199060031b1c1916175f556040516348c8949160e01b81525f818061026b60048201610f72565b601f198216925f80525f805160206116a6833981519152915f5b8581106105ae5750836001951061032f57505050811b015f5561024f565b91926020600181928685015181550194019201610590565b5f8052601f820160051c5f805160206116a6833981519152019060208310610618575b601f0160051c5f805160206116a683398151915201905b81811061060d575061052f565b5f8155600101610600565b5f805160206116a683398151915291506105e9565b34610125576020366003190112610125576004356001600160401b0381116101255736602382011215610125578060040135906001600160401b0382116101255736602483830101116101255761069e91602461068a9201610801565b6040519182916020835260208301906106a2565b0390f35b805180835260209291819084018484015e5f828201840152601f01601f1916010190565b60a081019081106001600160401b038211176103c657604052565b90601f801991011681019081106001600160401b038211176103c657604052565b61012435906001600160a01b038216820361012557565b60a09060031901126101255760405190610732826106c6565b816004356001600160a01b03811681036101255781526024356001600160a01b038116810361012557602082015260443562ffffff811681036101255760408201526064358060020b8103610125576060820152608435906001600160a01b03821682036101255760800152565b6001600160401b0381116103c657601f01601f191660200190565b81601f82011215610125578035906107d2826107a0565b926107e060405194856106e1565b8284526020838301011161012557815f926020809301838601378301015290565b907f00000000000000000000000000000000000000000000000000000000000000006001600160a01b03169033829003610e54578201916040818403126101255780359260028410156101255760208201356001600160401b0381116101255761086b92016107bb565b9180610b05575090805181016101408282031261012557602061089291016020830161102e565b9061089f60c0820161100c565b926108ac60e0830161100c565b6101008301516101208401519361090e906001600160a01b03906108d3906101400161101a565b16946108fb6108e189611378565b936108eb86611378565b946001600160a01b0316906110e9565b60601c926001600160a01b0316906110e9565b60601c80821015610afd5750945b6001600160801b038611610aee575b604051608081018181106001600160401b038211176103c657604094610164935f92875260020b8352602083019460020b85526001600160801b0386840199168952606083018281528651998a968795632d35e7ed60e11b8752610992600488018d610e8c565b5160020b60a48701525160020b60c48601525160e485015251610104840152610140610124840152816101448401525af1928315610131575f93610aba575b508260801d9083600f0b9180600f0b5f81125f14610a875750610a119082610a0260018060a01b03875116926110b5565b6001600160801b03169161118b565b5f821215610a4e57610a02610a3393602060018060a01b0391015116926110b5565b60405190602082015260208152610a4b6040826106e1565b90565b905f12610a5d575b5050610a33565b602090910151610a80916001600160801b038416916001600160a01b03166110fc565b5f80610a56565b5f12610a94575b50610a11565b8351610ab4916001600160801b03169083906001600160a01b03166110fc565b5f610a8e565b9092506040813d604011610ae6575b81610ad6604093836106e1565b810103126101255751915f6109d1565b3d9150610ac9565b6001600160801b03955061092b565b90509461091c565b600114610b425760405162461bcd60e51b815260206004820152600e60248201526d2ab735b737bbb71030b1ba34b7b760911b6044820152606490fd5b81518201610140836020830192031261012557610b62816020850161102e565b91610b6f60c085016110a8565b60e085015161010086015190956001600160a01b03821694909185900361012557610120820151906001600160401b038211610125576020610bb392840101610f07565b906001600160a01b0390610bca906101400161101a565b169260405160608101918183106001600160401b038411176103c65760209260405284159687158352838301998a5260408301908152604051998a93633cf3645360e21b8552610c1d600486018c610e8c565b51151560a48501525160c4840152516001600160a01b031660e4830152610120610104830152815f81610c546101248201886106a2565b03925af1958615610131575f96610e20575b5060808501515f916001600160a01b03909116908115159081610e15575b50610da4575b508560801d9386600f0b9480600f0b5f81125f14610d4a57508651610cbf92506001600160a01b0316908590610a02906110b5565b5f841215610ce3575050610a02610a3393602060018060a01b0391015116926110b5565b919093925f12610cf7575b50505050610a33565b610d279380610d38575b15610d305750905b602001516001600160801b03841691906001600160a01b03166110fc565b5f808080610cee565b905090610d09565b506001600160a01b0382161515610d01565b5f12610d58575b5050610cbf565b610d859180610d92575b15610d8c57825b87516001600160801b03909216916001600160a01b03166110fc565b5f80610d51565b84610d69565b506001600160a01b0383161515610d62565b60205f9160246040518094819363492a2cf960e11b83523060048401525af15f9181610dd9575b5015610c8a5790505f610c8a565b9091506020813d602011610e0d575b81610df5602093836106e1565b8101031261012557610e069061101a565b905f610dcb565b3d9150610de8565b90505115155f610c84565b9095506020813d602011610e4c575b81610e3c602093836106e1565b810103126101255751945f610c66565b3d9150610e2f565b60405162461bcd60e51b815260206004820152601060248201526f27b7363c902837b7b626b0b730b3b2b960811b6044820152606490fd5b80516001600160a01b03908116835260208083015182169084015260408083015162ffffff169084015260608083015160020b9084015260809182015116910152565b90600182811c92168015610efd575b6020831014610ee957565b634e487b7160e01b5f52602260045260245ffd5b91607f1691610ede565b81601f8201121561012557805190610f1e826107a0565b92610f2c60405194856106e1565b8284526020838301011161012557815f9260208093018386015e8301015290565b906020828203126101255781516001600160401b03811161012557610a4b9201610f07565b602081525f905f5490610f8482610ecf565b918260208301526001811690815f14610fe25750600114610fa457505090565b5f8080529192505f805160206116a68339815191525b838310610fcb575060409250010190565b805460408484010152602090920191600101610fba565b90506040935060ff929192191683830152151560051b010190565b90816020910312610125575190565b51908160020b820361012557565b51906001600160a01b038216820361012557565b91908260a091031261012557604051611046816106c6565b80926110518161101a565b825261105f6020820161101a565b602083015260408101519062ffffff8216820361012557608091604084015261108a6060820161100c565b60608401520151906001600160a01b03821682036101255760800152565b5190811515820361012557565b600f0b6f7fffffffffffffffffffffffffffffff1981146110d5575f0390565b634e487b7160e01b5f52601160045260245ffd5b818102929181159184041417156110d557565b907f00000000000000000000000000000000000000000000000000000000000000006001600160a01b0316803b1561012557604051630b0d9c0960e01b81526001600160a01b0393841660048201529190921660248201526001600160801b039290921660448301525f908290606490829084905af180156101315761117f5750565b5f611189916106e1565b565b9192915f916001600160a01b039091169081611237575050604051630476982d60e21b81529192602090839060049082906001600160801b03167f00000000000000000000000000000000000000000000000000000000000000006001600160a01b03165af190811561122b57506112005750565b6112219060203d602011611224575b61121981836106e1565b810190610ffd565b50565b503d61120f565b604051903d90823e3d90fd5b90937f00000000000000000000000000000000000000000000000000000000000000006001600160a01b031691823b1561012557604051632961046560e21b815260048101879052955f8760248183885af1968715610131576001600160801b039761135a575b506020929185606492604051998a9586946323b872dd60e01b865260018060a01b031660048601528860248601521660448401525af193841561134f5782939461130b575b50602090600460405180958193630476982d60e21b83525af190811561122b57506112005750565b9091506020813d602011611347575b81611327602093836106e1565b8101031261134357829161133c6020926110a8565b50906112e3565b8280fd5b3d915061131a565b6040513d84823e3d90fd5b60649195509161136d5f602095946106e1565b5f959150919261129e565b60020b908160ff1d82810118620d89e881116116925763ffffffff9192600182167001fffcb933bd6fad37aa2d162d1a59400102600160801b189160028116611676575b6004811661165a575b6008811661163e575b60108116611622575b60208116611606575b604081166115ea575b608081166115ce575b61010081166115b2575b6102008116611596575b610400811661157a575b610800811661155e575b6110008116611542575b6120008116611526575b614000811661150a575b61800081166114ee575b6201000081166114d2575b6202000081166114b7575b62040000811661149c575b6208000016611483575b5f1261147b575b0160201c90565b5f1904611474565b6b048a170391f7dc42444e8fa290910260801c9061146d565b6d2216e584f5fa1ea926041bedfe9890920260801c91611463565b916e5d6af8dedb81196699c329225ee6040260801c91611458565b916f09aa508b5b7a84e1c677de54f3e99bc90260801c9161144d565b916f31be135f97d08fd981231505542fcfa60260801c91611442565b916f70d869a156d2a1b890bb3df62baf32f70260801c91611438565b916fa9f746462d870fdf8a65dc1f90e061e50260801c9161142e565b916fd097f3bdfd2022b8845ad8f792aa58250260801c91611424565b916fe7159475a2c29b7443b29c7fa6e889d90260801c9161141a565b916ff3392b0822b70005940c7a398e4b70f30260801c91611410565b916ff987a7253ac413176f2b074cf7815e540260801c91611406565b916ffcbe86c7900a88aedcffc83b479aa3a40260801c916113fc565b916ffe5dee046a99a2a811c461f1969c30530260801c916113f2565b916fff2ea16466c96a3843ec78b326b528610260801c916113e9565b916fff973b41fa98c081472e6896dfb254c00260801c916113e0565b916fffcb9843d60f6159c9db58835c9266440260801c916113d7565b916fffe5caca7e10e4e61c3624eaa0941cd00260801c916113ce565b916ffff2e50f5f656932ef12357cf3c7fdcc0260801c916113c5565b916ffff97272373d413259a46990580e213a0260801c916113bc565b826345c3193d60e11b5f5260045260245ffdfe290decd9548b62a8d60345a988386fc84ba6bc95484008f6362f93160ef3e563a26469706673582212209806a49b9d47f278ece0555c7faac5f59d64a792343b49db91fc44451be30a3564736f6c634300081a003300000000000000000000000000b036b58a818b1bc34d502d3fe730db729e62ac",
        "nonce": "0x67",
        "chainId": "0x515"
      },
      "additionalContracts": [],
      "isFixedGasLimit": false
    },
    {
      "hash": "0xd0a065a3555a8b79d1f0b1fbe07de77ec4bbbc61968a1376ed8e3e5437fec989",
      "transactionType": "CALL",
      "contractName": null,
      "contractAddress": "0x48ba64b5312afdfe4fc96d8f03010a0a86e17963",
      "function": "approve(address,uint256)",
      "arguments": [
        "0x0f8113EfA5527346978534192a76C94a567cae42",
        "100000000000000000000000"
      ],
      "transaction": {
        "from": "0x25f75573799a3aa37760d6be4b862aca70599b49",
        "to": "0x48ba64b5312afdfe4fc96d8f03010a0a86e17963",
        "gas": "0x10691",
        "value": "0x0",
        "input": "0x095ea7b30000000000000000000000000f8113efa5527346978534192a76c94a567cae4200000000000000000000000000000000000000000000152d02c7e14af6800000",
        "nonce": "0x68",
        "chainId": "0x515"
      },
      "additionalContracts": [],
      "isFixedGasLimit": false
    },
    {
      "hash": "0x45ab1383e6c8b313d7b9f1de7477df5f1cccc1e395130a3078fbc9498d5ae246",
      "transactionType": "CALL",
      "contractName": null,
      "contractAddress": "0x96ac37889dfdcd4da0c898a5c9fb9d17ced60b1b",
      "function": "approve(address,uint256)",
      "arguments": [
        "0x0f8113EfA5527346978534192a76C94a567cae42",
        "100000000000000000000000"
      ],
      "transaction": {
        "from": "0x25f75573799a3aa37760d6be4b862aca70599b49",
        "to": "0x96ac37889dfdcd4da0c898a5c9fb9d17ced60b1b",
        "gas": "0x10691",
        "value": "0x0",
        "input": "0x095ea7b30000000000000000000000000f8113efa5527346978534192a76c94a567cae4200000000000000000000000000000000000000000000152d02c7e14af6800000",
        "nonce": "0x69",
        "chainId": "0x515"
      },
      "additionalContracts": [],
      "isFixedGasLimit": false
    },
    {
      "hash": "0xa0df6e5b9202bbc1798f8672a87da94ab1ae5e2c56d592b5c647a29963a72bda",
      "transactionType": "CALL",
      "contractName": "PoolTestHelper",
      "contractAddress": "0x0f8113efa5527346978534192a76c94a567cae42",
      "function": "addLiquidity((address,address,uint24,int24,address),int24,int24,uint256,uint256,address)",
      "arguments": [
        "(0x48bA64b5312AFDfE4Fc96d8F03010A0a86e17963, 0x96aC37889DfDcd4dA0C898a5c9FB9D17ceD60b1B, 3000, 60, 0xc52c297f4f0d0556b1cd69b655F23df2513eC0C4)",
        "-6000",
        "6000",
        "100000000000000000000000",
        "100000000000000000000000",
        "0x25f75573799A3Aa37760D6bE4b862acA70599b49"
      ],
      "transaction": {
        "from": "0x25f75573799a3aa37760d6be4b862aca70599b49",
        "to": "0x0f8113efa5527346978534192a76c94a567cae42",
        "gas": "0xb9000",
        "value": "0x0",
        "input": "0xf6d8477f00000000000000000000000048ba64b5312afdfe4fc96d8f03010a0a86e1796300000000000000000000000096ac37889dfdcd4da0c898a5c9fb9d17ced60b1b0000000000000000000000000000000000000000000000000000000000000bb8000000000000000000000000000000000000000000000000000000000000003c000000000000000000000000c52c297f4f0d0556b1cd69b655f23df2513ec0c4ffffffffffffffffffffffffffffffffffffffffffffffffffffffffffffe890000000000000000000000000000000000000000000000000000000000000177000000000000000000000000000000000000000000000152d02c7e14af680000000000000000000000000000000000000000000000000152d02c7e14af680000000000000000000000000000025f75573799a3aa37760d6be4b862aca70599b49",
        "nonce": "0x6a",
        "chainId": "0x515"
      },
      "additionalContracts": [],
      "isFixedGasLimit": false
    }
  ],
  "receipts": [
    {
      "status": "0x1",
      "cumulativeGasUsed": "0x18245c",
      "logs": [],
      "logsBloom": "0x00000000000000000000000000000000000000000000000000000000000000000000000000000000000000000000000000000000000000000000000000000000000000000000000000000000000000000000000000000000000000000000000000000000000000000000000000000000000000000000000000000000000000000000000000000000000000000000000000000000000000000000000000000000000000000000000000000000000000000000000000000000000000000000000000000000000000000000000000000000000000000000000000000000000000000000000000000000000000000000000000000000000000000000000000000000",
      "type": "0x2",
      "transactionHash": "0x45ab1383e6c8b313d7b9f1de7477df5f1cccc1e395130a3078fbc9498d5ae246",
      "transactionIndex": "0x4",
      "blockHash": "0x943c39f6e85073aa10888c5863653a9c44ec7f44c39a50d8250ccf2db08d3c26",
      "blockNumber": "0x295f69a",
      "gasUsed": "0x143a02",
      "effectiveGasPrice": "0x7a121",
      "blobGasUsed": "0x164ef0",
      "from": "0x25f75573799a3aa37760d6be4b862aca70599b49",
      "to": null,
      "contractAddress": "0x0f8113efa5527346978534192a76c94a567cae42",
      "daFootprintGasScalar": "0x190",
      "l1BaseFeeScalar": "0x7d0",
      "l1BlobBaseFee": "0x3d4c84b",
      "l1BlobBaseFeeScalar": "0xdbba0",
      "l1Fee": "0x4c15614adc",
      "l1GasPrice": "0x3ac07813",
      "l1GasUsed": "0xe479"
    },
    {
      "status": "0x1",
      "cumulativeGasUsed": "0x18d7e5",
      "logs": [
        {
          "address": "0x48ba64b5312afdfe4fc96d8f03010a0a86e17963",
          "topics": [
            "0x8c5be1e5ebec7d5bd14f71427d1e84f3dd0314c0f7b2291e5b200ac8c7c3b925",
            "0x00000000000000000000000025f75573799a3aa37760d6be4b862aca70599b49",
            "0x0000000000000000000000000f8113efa5527346978534192a76c94a567cae42"
          ],
          "data": "0x00000000000000000000000000000000000000000000152d02c7e14af6800000",
          "blockHash": "0x943c39f6e85073aa10888c5863653a9c44ec7f44c39a50d8250ccf2db08d3c26",
          "blockNumber": "0x295f69a",
          "blockTimestamp": "0x6983a3e6",
          "transactionHash": "0xb67b247e63b0563fcf34ce7c7097bfaef57a9705b03b22a08a579e463404895a",
          "transactionIndex": "0x5",
          "logIndex": "0x2",
          "removed": false
        }
      ],
      "logsBloom": "0x00000000008000000000000000000000000000004000000000000000000000000000000000000000008000008000000000000000000000000000000000200000000000000000000000000002000000000000000000000000000000000000000000000000000000000000000000000000000000000010000000000000000000000000000000000000000000000400000000000000000000000000000000010000020000000000000000000000000000010000000000000000000000000000000000000000000000000000000000000000000000000000000000000000000000000010000000000000000000000000000000000000000000000000000000000000",
      "type": "0x2",
      "transactionHash": "0xb67b247e63b0563fcf34ce7c7097bfaef57a9705b03b22a08a579e463404895a",
      "transactionIndex": "0x5",
      "blockHash": "0x943c39f6e85073aa10888c5863653a9c44ec7f44c39a50d8250ccf2db08d3c26",
      "blockNumber": "0x295f69a",
      "gasUsed": "0xb389",
      "effectiveGasPrice": "0x7a121",
      "blobGasUsed": "0x9c40",
      "from": "0x25f75573799a3aa37760d6be4b862aca70599b49",
      "to": "0x48ba64b5312afdfe4fc96d8f03010a0a86e17963",
      "contractAddress": null,
      "daFootprintGasScalar": "0x190",
      "l1BaseFeeScalar": "0x7d0",
      "l1BlobBaseFee": "0x3d4c84b",
      "l1BlobBaseFeeScalar": "0xdbba0",
      "l1Fee": "0x214cfea9a",
      "l1GasPrice": "0x3ac07813",
      "l1GasUsed": "0x640"
    },
    {
      "status": "0x1",
      "cumulativeGasUsed": "0x32dbd",
      "logs": [
        {
          "address": "0x96ac37889dfdcd4da0c898a5c9fb9d17ced60b1b",
          "topics": [
            "0x8c5be1e5ebec7d5bd14f71427d1e84f3dd0314c0f7b2291e5b200ac8c7c3b925",
            "0x00000000000000000000000025f75573799a3aa37760d6be4b862aca70599b49",
            "0x0000000000000000000000000f8113efa5527346978534192a76c94a567cae42"
          ],
          "data": "0x00000000000000000000000000000000000000000000152d02c7e14af6800000",
          "blockHash": "0x2596d2fa94bad564a16e1b22c7b017d43d4821011ad22015387a88732deded7f",
          "blockNumber": "0x295f69b",
          "blockTimestamp": "0x6983a3e7",
          "transactionHash": "0xa0df6e5b9202bbc1798f8672a87da94ab1ae5e2c56d592b5c647a29963a72bda",
          "transactionIndex": "0x3",
          "logIndex": "0x1",
          "removed": false
        }
      ],
      "logsBloom": "0x00000000000000000000000000000000000800004000000000000000000000000000000000000000000000008000000000000000000000000000000000200000000000000000000000000002000000000000000000000000000000000000000000000000000000000000000000000000000000000010000000000000000000000000000000000000000000000400000000000000000000000000020800000000020000000000000000000000000000010000000000000000000000000000000000000000000000000000000000000000000000000000000000000000000000000010000000000000000000000000000000000000000000000000000000000000",
      "type": "0x2",
      "transactionHash": "0xa0df6e5b9202bbc1798f8672a87da94ab1ae5e2c56d592b5c647a29963a72bda",
      "transactionIndex": "0x3",
      "blockHash": "0x2596d2fa94bad564a16e1b22c7b017d43d4821011ad22015387a88732deded7f",
      "blockNumber": "0x295f69b",
      "gasUsed": "0xb389",
      "effectiveGasPrice": "0x7a121",
      "blobGasUsed": "0x9c40",
      "from": "0x25f75573799a3aa37760d6be4b862aca70599b49",
      "to": "0x96ac37889dfdcd4da0c898a5c9fb9d17ced60b1b",
      "contractAddress": null,
      "daFootprintGasScalar": "0x190",
      "l1BaseFeeScalar": "0x7d0",
      "l1BlobBaseFee": "0x3d4c84b",
      "l1BlobBaseFeeScalar": "0xdbba0",
      "l1Fee": "0x214cfea9a",
      "l1GasPrice": "0x3ac07813",
      "l1GasUsed": "0x640"
    },
    {
      "status": "0x1",
      "cumulativeGasUsed": "0xb8cbb",
      "logs": [
        {
          "address": "0x00b036b58a818b1bc34d502d3fe730db729e62ac",
          "topics": [
            "0xf208f4912782fd25c7f114ca3723a2d5dd6f3bcc3ac8db5af63baa85f711d5ec",
            "0x00587da16e8b912efc26a01907f5543c68fb06196876e8ba4f49bcd57a26d267",
            "0x0000000000000000000000000f8113efa5527346978534192a76c94a567cae42"
          ],
          "data": "0xffffffffffffffffffffffffffffffffffffffffffffffffffffffffffffe8900000000000000000000000000000000000000000000000000000000000001770000000000000000000000000000000000000000000000fb00b3a404397bb73590000000000000000000000000000000000000000000000000000000000000000",
          "blockHash": "0x0000000000000000000000000000000000000000000000000000000000000000",
          "blockNumber": "0x295f69b",
          "blockTimestamp": "0x6983a3e7",
          "transactionHash": "0xd0a065a3555a8b79d1f0b1fbe07de77ec4bbbc61968a1376ed8e3e5437fec989",
          "transactionIndex": "0x4",
          "logIndex": "0x2",
          "removed": false
        },
        {
          "address": "0x48ba64b5312afdfe4fc96d8f03010a0a86e17963",
          "topics": [
            "0xddf252ad1be2c89b69c2b068fc378daa952ba7f163c4a11628f55a4df523b3ef",
            "0x00000000000000000000000025f75573799a3aa37760d6be4b862aca70599b49",
            "0x00000000000000000000000000b036b58a818b1bc34d502d3fe730db729e62ac"
          ],
          "data": "0x000000000000000000000000000000000000000000000410d73c93ea56521a91",
          "blockHash": "0x0000000000000000000000000000000000000000000000000000000000000000",
          "blockNumber": "0x295f69b",
          "blockTimestamp": "0x6983a3e7",
          "transactionHash": "0xd0a065a3555a8b79d1f0b1fbe07de77ec4bbbc61968a1376ed8e3e5437fec989",
          "transactionIndex": "0x4",
          "logIndex": "0x3",
          "removed": false
        },
        {
          "address": "0x96ac37889dfdcd4da0c898a5c9fb9d17ced60b1b",
          "topics": [
            "0xddf252ad1be2c89b69c2b068fc378daa952ba7f163c4a11628f55a4df523b3ef",
            "0x00000000000000000000000025f75573799a3aa37760d6be4b862aca70599b49",
            "0x00000000000000000000000000b036b58a818b1bc34d502d3fe730db729e62ac"
          ],
          "data": "0x000000000000000000000000000000000000000000000410d73c93ea56521a91",
          "blockHash": "0x0000000000000000000000000000000000000000000000000000000000000000",
          "blockNumber": "0x295f69b",
          "blockTimestamp": "0x6983a3e7",
          "transactionHash": "0xd0a065a3555a8b79d1f0b1fbe07de77ec4bbbc61968a1376ed8e3e5437fec989",
          "transactionIndex": "0x4",
          "logIndex": "0x4",
          "removed": false
        }
      ],
      "logsBloom": "0x0000000000800000000000000000800000080000400000000000000000000000000000000000000000800000800000000000000000100000000000000000000002000000000000000000000a000000000000000000000000000000000000000000000000020000000000000000004000000000000010000000000010000000000000000001000000000000000408000000000000000000000000020800010000000004000000000000000000000000010000000000000020000000000000000000000002000000000000000000000000000000000000000000000000000000000000000000000000000000000000000004000000000002000000000000000010",
      "type": "0x2",
      "transactionHash": "0xd0a065a3555a8b79d1f0b1fbe07de77ec4bbbc61968a1376ed8e3e5437fec989",
      "transactionIndex": "0x4",
      "blockHash": "0x0000000000000000000000000000000000000000000000000000000000000000",
      "blockNumber": "0x295f69b",
      "gasUsed": "0x85efe",
      "effectiveGasPrice": "0x7a121",
      "blobGasUsed": "0x11300",
      "from": "0x25f75573799a3aa37760d6be4b862aca70599b49",
      "to": "0x0f8113efa5527346978534192a76c94a567cae42",
      "contractAddress": null,
      "daFootprintGasScalar": "0x190",
      "l1BaseFeeScalar": "0x7d0",
      "l1BlobBaseFee": "0x3d4c84b",
      "l1BlobBaseFeeScalar": "0xdbba0",
      "l1Fee": "0x2dfce1a28",
      "l1GasPrice": "0x3ac07813",
      "l1GasUsed": "0xb09"
    }
  ],
  "libraries": [],
  "pending": [],
  "returns": {},
  "timestamp": 1770234855248,
  "chain": 1301,
  "commit": "21e8e16"
}