{
  "transactions": [
    {
      "hash": "0x0b9d5241d48e74bb5904318ff7e1a3c67ae2b7f43e05accd4f69352b7c2286ab",
      "transactionType": "CREATE",
      "contractName": "GrimPoolMultiToken",
      "contractAddress": "0x6777cfe2a72669da5a8087181e42ca3db29e7710",
      "function": null,
      "arguments": null,
      "transaction": {
        "from": "0x25f75573799a3aa37760d6be4b862aca70599b49",
        "gas": "0x27ddae",
        "value": "0x0",
        "input": "0x6080604052346100f05760015f818155604e80546001600160a01b03191633179055805260506020527f348af2a918a292b1880f5b496291a3bc0b556c00e759e744db9445861889d366805460ff1916821790557f2fe54c60d3acabf3343a35b6eba15db4821b340f76e741e2249685ed4899af6c603981905560068190555b601463ffffffff8316106100c057604c5461009a90806100f4565b601a5560405161119090816101608239f35b634e487b7160e01b5f52603260045260245ffd5b806100ca916100f4565b9060148110156100ac576001818363ffffffff936039015583816006015501169061007f565b5f80fd5b604080516020810192835280820193909352825260608201916001600160401b0383118184101761014b577f30644e72e131a029b85045b68181585d2833e84879b9709143e1f593f0000001926040525190200690565b634e487b7160e01b5f52604160045260245ffdfe6080604052600436101561001a575b3615610018575f80fd5b005b5f3560e01c80630a46be5414610e5d5780630be4f4221461077e57806317cc915c146102fa5780633f41e77b14610e17578063414a37ba14610df05780636b7bc89e14610cc05780636d9833e314610c985780636f9513cb14610bea5780637573cd151461097a5780637876f22b146109505780637a0c54ae146108f35780637d67b8501461088f578063839df945146106875780638aaa2284146108145780638da5cb5b146107ec578063901f7cf9146107c457806390eeb02b146107a15780639363a1411461077e5780639c6ad114146107385780639e6f1f66146106fb578063a08bd437146106b6578063a2fa490914610687578063a734f06e1461066d578063b214faa51461044d578063b387cb6514610405578063ba70f757146103c0578063c2b40ae414610394578063cd87a3b414610379578063cfb1f7a814610347578063de1b905214610329578063e5285dcc146102fa578063e744092e146102bd578063e829558814610291578063ec73295914610257578063f178e47c1461022b578063f2fde38b146101d45763fcc0be6b0361000e57346101d0575f3660031901126101d057602060405160148152f35b5f80fd5b346101d05760203660031901126101d0576101ed610eaa565b604e54906001600160a01b038216330361021d576001600160a01b03166001600160a01b03199190911617604e55005b6282b42960e81b5f5260045ffd5b346101d05760203660031901126101d05760043560148110156101d05760209060060154604051908152f35b346101d0575f3660031901126101d05760206040517f2fe54c60d3acabf3343a35b6eba15db4821b340f76e741e2249685ed4899af6c8152f35b346101d05760203660031901126101d05760043560148110156101d05760209060390154604051908152f35b346101d05760203660031901126101d0576001600160a01b036102de610eaa565b165f526050602052602060ff60405f2054166040519015158152f35b346101d05760203660031901126101d0576004355f526002602052602060ff60405f2054166040519015158152f35b346101d0575f3660031901126101d057602062100000604051908152f35b346101d05760203660031901126101d0576004355f526004602052602060018060a01b0360405f205416604051908152f35b346101d0575f3660031901126101d0576020604051601e8152f35b346101d05760203660031901126101d057600435601e8110156101d057602090601a0154604051908152f35b346101d0575f3660031901126101d05763ffffffff60385416601e8110156103f157602090601a0154604051908152f35b634e487b7160e01b5f52603260045260245ffd5b346101d05761041336610ec0565b604e546001600160a01b0316330361021d576100189160018060a01b03165f52604f60205260405f209060ff801983541691151516179055565b60203660031901126101d05760043561046461104a565b341561065e57801561064f575f8051602061113b83398151915281101561064f57805f52600360205260ff60405f2054166106405763ffffffff60015416621000001115610631575f818152600360209081526040808320805460ff191660019081179091556004835281842080546001600160a01b0319169055600590925282203490555463ffffffff169190819083905b601463ffffffff82161061059757505060385463ffffffff601e8161051d81851661101e565b160616809163ffffffff191617603855601e8110156103f1575f937f0b281fef32170e93d2f582000fb1898aa75747c019f698c3147f617e661e84fc92606092601a015563ffffffff61056f8261101e565b1663ffffffff196001541617600155604051908152346020820152426040820152a360015f55005b909160018316610602578060148310156103f157637fffffff5f8051602061113b83398151915263ffffffff9360019386603901549087600601555b60405190602082019283526040820152604081526105f2606082610f31565b5190200694821c169201166104f7565b60148210156103f1576001637fffffff5f8051602061113b83398151915263ffffffff938560060154906105d3565b6377ae67b360e11b5f5260045ffd5b63145718a760e01b5f5260045ffd5b636033c4fd60e11b5f5260045ffd5b63162908e360e11b5f5260045ffd5b346101d0575f3660031901126101d05760206040515f8152f35b346101d05760203660031901126101d0576004355f526003602052602060ff60405f2054166040519015158152f35b346101d05760203660031901126101d057600480355f908152602091825260408082205460058452918190205481516001600160a01b03909316835292820192909252f35b346101d05760203660031901126101d0576001600160a01b0361071c610eaa565b165f52604f602052602060ff60405f2054166040519015158152f35b346101d05760203660031901126101d05760043563ffffffff81168082036101d05760146107669110610eef565b60148110156103f15760209060060154604051908152f35b346101d0575f3660031901126101d057602063ffffffff60015416604051908152f35b346101d0575f3660031901126101d057602063ffffffff60385416604051908152f35b346101d0575f3660031901126101d057604d546040516001600160a01b039091168152602090f35b346101d0575f3660031901126101d057604e546040516001600160a01b039091168152602090f35b346101d05761082236610ec0565b604e549091906001600160a01b0316330361021d5760207fef81a9943b96c8df4ef243401c9bf5159146166211356898b52d382086168d929160018060a01b031692835f52605082526108848160405f209060ff801983541691151516179055565b6040519015158152a2005b346101d05760203660031901126101d057604d54600435906001600160a01b0316330361021d57805f52600260205260ff60405f2054166108e4575f908152600260205260409020805460ff19166001179055005b636569570160e11b5f5260045ffd5b346101d05760203660031901126101d057604e546001600160a01b0316330361021d5760385463ffffffff601e8161092c81851661101e565b160616809163ffffffff191617603855601e8110156103f157600435601a90910155005b346101d05760203660031901126101d0576004355f526005602052602060405f2054604051908152f35b346101d05760603660031901126101d0576024356001600160a01b03811690600435908290036101d0576044356109af61104a565b8215610bdb57825f52605060205260ff60405f20541615610bdb57801561065e57610a0a6040516323b872dd60e01b602082015233602482015230604482015282606482015260648152610a04608482610f31565b84611068565b811561064f575f8051602061113b83398151915282101561064f57815f52600360205260ff60405f2054166106405763ffffffff6001541662100000111561063157815f52600360205260405f20600160ff19825416179055815f52600460205260405f20836bffffffffffffffffffffffff60a01b825416179055815f5260056020528060405f205563ffffffff60015416908183925f5b601463ffffffff821610610b415750506038549163ffffffff601e81610aca81871661101e565b160616809363ffffffff191617603855601e8310156103f1577f0b281fef32170e93d2f582000fb1898aa75747c019f698c3147f617e661e84fc93606093601a015563ffffffff610b1a8361101e565b1663ffffffff1960015416176001556040519182526020820152426040820152a360015f55005b909360018516610bac578060148310156103f157637fffffff5f8051602061113b83398151915263ffffffff9360019386603901549087600601555b6040519060208201928352604082015260408152610b9c606082610f31565b5190200696821c16920116610aa3565b60148210156103f1576001637fffffff5f8051602061113b83398151915263ffffffff93856006015490610b7d565b63514e24c360e11b5f5260045ffd5b346101d05760203660031901126101d057600435335f52604f60205260ff60405f2054161580610c83575b61021d57804710610c74575f80808084335af1610c30610fdf565b5015610c65576040519081525f7fa5fa891a402945a5916b3b11763e3446525ced0e1d55a45cb3d3024f22ce448660203393a3005b6312171d8360e31b5f5260045ffd5b63bc6072f160e01b5f5260045ffd5b50604d546001600160a01b0316331415610c15565b346101d05760203660031901126101d0576020610cb6600435610f67565b6040519015158152f35b346101d05760403660031901126101d057610cd9610eaa565b60243590335f52604f60205260ff60405f2054161580610ddb575b61021d576001600160a01b03168015610bdb576040516370a0823160e01b8152306004820152602081602481855afa8015610dd05783915f91610d9b575b5010610c745760405163a9059cbb60e01b602082015233602482015260448082018490528152610d6d90610d67606482610f31565b82611068565b6040519182527fa5fa891a402945a5916b3b11763e3446525ced0e1d55a45cb3d3024f22ce448660203393a3005b9150506020813d602011610dc8575b81610db760209383610f31565b810103126101d05782905184610d32565b3d9150610daa565b6040513d5f823e3d90fd5b50604d546001600160a01b0316331415610cf4565b346101d0575f3660031901126101d05760206040515f8051602061113b8339815191528152f35b346101d05760203660031901126101d05760043563ffffffff81168082036101d0576014610e459110610eef565b60148110156103f15760209060390154604051908152f35b346101d05760203660031901126101d057610e76610eaa565b604e546001600160a01b0316330361021d57604d80546001600160a01b0319166001600160a01b0392909216919091179055005b600435906001600160a01b03821682036101d057565b60409060031901126101d0576004356001600160a01b03811681036101d0579060243580151581036101d05790565b15610ef657565b60405162461bcd60e51b81526020600482015260136024820152724c6576656c206f7574206f6620626f756e647360681b6044820152606490fd5b90601f8019910116810190811067ffffffffffffffff821117610f5357604052565b634e487b7160e01b5f52604160045260245ffd5b8015610fda5763ffffffff603854165f905b601e63ffffffff831610610f8e575050505f90565b601e8110156103f1578281601a015414610fd25763ffffffff1680610fc1575063ffffffff6001601d925b011690610f79565b600163ffffffff915f190192610fb9565b505050600190565b505f90565b3d15611019573d9067ffffffffffffffff8211610f53576040519161100e601f8201601f191660200184610f31565b82523d5f602084013e565b606090565b63ffffffff60019116019063ffffffff821161103657565b634e487b7160e01b5f52601160045260245ffd5b60025f54146110595760025f55565b633ee5aeb560e01b5f5260045ffd5b5f806110909260018060a01b03169360208151910182865af1611089610fdf565b90836110dc565b80519081151591826110b8575b50506110a65750565b635274afe760e01b5f5260045260245ffd5b81925090602091810103126101d057602001518015908115036101d0575f8061109d565b9061110057508051156110f157805190602001fd5b630a12f52160e11b5f5260045ffd5b81511580611131575b611111575090565b639996b31560e01b5f9081526001600160a01b0391909116600452602490fd5b50803b1561110956fe30644e72e131a029b85045b68181585d2833e84879b9709143e1f593f0000001a26469706673582212201aa4fcdbddbd04c937a49fff25342dd0ebe745129ad3553a3fb9ddbeae6d157764736f6c634300081a0033",
        "nonce": "0x109",
        "chainId": "0x515"
      },
      "additionalContracts": [],
      "isFixedGasLimit": false
    },
    {
      "hash": "0xb31a3eecc3d69d9e281d4bc588103becc31a75a916bb18fd4b4044be4a28447e",
      "transactionType": "CALL",
      "contractName": "GrimPoolMultiToken",
      "contractAddress": "0x6777cfe2a72669da5a8087181e42ca3db29e7710",
      "function": "setGrimSwapZK(address)",
      "arguments": [
        "0x3bee7D1A5914d1ccD34D2a2d00C359D0746400C4"
      ],
      "transaction": {
        "from": "0x25f75573799a3aa37760d6be4b862aca70599b49",
        "to": "0x6777cfe2a72669da5a8087181e42ca3db29e7710",
        "gas": "0xf7b6",
        "value": "0x0",
        "input": "0x0a46be540000000000000000000000003bee7d1a5914d1ccd34d2a2d00c359d0746400c4",
        "nonce": "0x10a",
        "chainId": "0x515"
      },
      "additionalContracts": [],
      "isFixedGasLimit": false
    },
    {
      "hash": "0x8320507dc04ad909b995a71e74026fa9f8b089def48b0dcb82a775758f96eac9",
      "transactionType": "CALL",
      "contractName": "GrimPoolMultiToken",
      "contractAddress": "0x6777cfe2a72669da5a8087181e42ca3db29e7710",
      "function": "setAuthorizedRouter(address,bool)",
      "arguments": [
        "0xC13a6a504da21aD23c748f08d3E991621D42DA4F",
        "true"
      ],
      "transaction": {
        "from": "0x25f75573799a3aa37760d6be4b862aca70599b49",
        "to": "0x6777cfe2a72669da5a8087181e42ca3db29e7710",
        "gas": "0xfbfd",
        "value": "0x0",
        "input": "0xb387cb65000000000000000000000000c13a6a504da21ad23c748f08d3e991621d42da4f0000000000000000000000000000000000000000000000000000000000000001",
        "nonce": "0x10b",
        "chainId": "0x515"
      },
      "additionalContracts": [],
      "isFixedGasLimit": false
    },
    {
      "hash": "0x283614063f66d32a522effedfae7273537327b550a09b98795adb199e8cde03d",
      "transactionType": "CALL",
      "contractName": "GrimPoolMultiToken",
      "contractAddress": "0x6777cfe2a72669da5a8087181e42ca3db29e7710",
      "function": "setAllowedToken(address,bool)",
      "arguments": [
        "0x31d0220469e10c4E71834a79b1f276d740d3768F",
        "true"
      ],
      "transaction": {
        "from": "0x25f75573799a3aa37760d6be4b862aca70599b49",
        "to": "0x6777cfe2a72669da5a8087181e42ca3db29e7710",
        "gas": "0x10269",
        "value": "0x0",
        "input": "0x8aaa228400000000000000000000000031d0220469e10c4e71834a79b1f276d740d3768f0000000000000000000000000000000000000000000000000000000000000001",
        "nonce": "0x10c",
        "chainId": "0x515"
      },
      "additionalContracts": [],
      "isFixedGasLimit": false
    }
  ],
  "receipts": [
    {
      "status": "0x1",
      "cumulativeGasUsed": "0x26e53a",
      "logs": [],
      "logsBloom": "0x00000000000000000000000000000000000000000000000000000000000000000000000000000000000000000000000000000000000000000000000000000000000000000000000000000000000000000000000000000000000000000000000000000000000000000000000000000000000000000000000000000000000000000000000000000000000000000000000000000000000000000000000000000000000000000000000000000000000000000000000000000000000000000000000000000000000000000000000000000000000000000000000000000000000000000000000000000000000000000000000000000000000000000000000000000000",
      "type": "0x2",
      "transactionHash": "0xb31a3eecc3d69d9e281d4bc588103becc31a75a916bb18fd4b4044be4a28447e",
      "transactionIndex": "0x7",
      "blockHash": "0xefbbcd2ec30b0266c663c7bada8ace6d987a8a1bc190e42f9d330d68bcba7e18",
      "blockNumber": "0x29808e6",
      "gasUsed": "0x1eaa86",
      "effectiveGasPrice": "0x7a121",
      "blobGasUsed": "0xfca30",
      "from": "0x25f75573799a3aa37760d6be4b862aca70599b49",
      "to": null,
      "contractAddress": "0x6777cfe2a72669da5a8087181e42ca3db29e7710",
      "daFootprintGasScalar": "0x190",
      "l1BaseFeeScalar": "0x7d0",
      "l1BlobBaseFee": "0x38de6c9",
      "l1BlobBaseFeeScalar": "0xdbba0",
      "l1Fee": "0x3243df8ba1",
      "l1GasPrice": "0x3773bde6",
      "l1GasUsed": "0xa1b5"
    },
    {
      "status": "0x1",
      "cumulativeGasUsed": "0x279891",
      "logs": [],
      "logsBloom": "0x00000000000000000000000000000000000000000000000000000000000000000000000000000000000000000000000000000000000000000000000000000000000000000000000000000000000000000000000000000000000000000000000000000000000000000000000000000000000000000000000000000000000000000000000000000000000000000000000000000000000000000000000000000000000000000000000000000000000000000000000000000000000000000000000000000000000000000000000000000000000000000000000000000000000000000000000000000000000000000000000000000000000000000000000000000000",
      "type": "0x2",
      "transactionHash": "0x283614063f66d32a522effedfae7273537327b550a09b98795adb199e8cde03d",
      "transactionIndex": "0x8",
      "blockHash": "0xefbbcd2ec30b0266c663c7bada8ace6d987a8a1bc190e42f9d330d68bcba7e18",
      "blockNumber": "0x29808e6",
      "gasUsed": "0xb357",
      "effectiveGasPrice": "0x7a121",
      "blobGasUsed": "0x9c40",
      "from": "0x25f75573799a3aa37760d6be4b862aca70599b49",
      "to": "0x6777cfe2a72669da5a8087181e42ca3db29e7710",
      "contractAddress": null,
      "daFootprintGasScalar": "0x190",
      "l1BaseFeeScalar": "0x7d0",
      "l1BlobBaseFee": "0x38de6c9",
      "l1BlobBaseFeeScalar": "0xdbba0",
      "l1Fee": "0x1f1558256",
      "l1GasPrice": "0x3773bde6",
      "l1GasUsed": "0x640"
    },
    {
      "status": "0x1",
      "cumulativeGasUsed": "0x284f01",
      "logs": [],
      "logsBloom": "0x00000000000000000000000000000000000000000000000000000000000000000000000000000000000000000000000000000000000000000000000000000000000000000000000000000000000000000000000000000000000000000000000000000000000000000000000000000000000000000000000000000000000000000000000000000000000000000000000000000000000000000000000000000000000000000000000000000000000000000000000000000000000000000000000000000000000000000000000000000000000000000000000000000000000000000000000000000000000000000000000000000000000000000000000000000000",
      "type": "0x2",
      "transactionHash": "0x0b9d5241d48e74bb5904318ff7e1a3c67ae2b7f43e05accd4f69352b7c2286ab",
      "transactionIndex": "0x9",
      "blockHash": "0xefbbcd2ec30b0266c663c7bada8ace6d987a8a1bc190e42f9d330d68bcba7e18",
      "blockNumber": "0x29808e6",
      "gasUsed": "0xb670",
      "effectiveGasPrice": "0x7a121",
      "blobGasUsed": "0x9c40",
      "from": "0x25f75573799a3aa37760d6be4b862aca70599b49",
      "to": "0x6777cfe2a72669da5a8087181e42ca3db29e7710",
      "contractAddress": null,
      "daFootprintGasScalar": "0x190",
      "l1BaseFeeScalar": "0x7d0",
      "l1BlobBaseFee": "0x38de6c9",
      "l1BlobBaseFeeScalar": "0xdbba0",
      "l1Fee": "0x1f1558256",
      "l1GasPrice": "0x3773bde6",
      "l1GasUsed": "0x640"
    },
    {
      "status": "0x1",
      "cumulativeGasUsed": "0x290a17",
      "logs": [
        {
          "address": "0x6777cfe2a72669da5a8087181e42ca3db29e7710",
          "topics": [
            "0xef81a9943b96c8df4ef243401c9bf5159146166211356898b52d382086168d92",
            "0x00000000000000000000000031d0220469e10c4e71834a79b1f276d740d3768f"
          ],
          "data": "0x0000000000000000000000000000000000000000000000000000000000000001",
          "blockHash": "0xefbbcd2ec30b0266c663c7bada8ace6d987a8a1bc190e42f9d330d68bcba7e18",
          "blockNumber": "0x29808e6",
          "blockTimestamp": "0x6985b632",
          "transactionHash": "0x8320507dc04ad909b995a71e74026fa9f8b089def48b0dcb82a775758f96eac9",
          "transactionIndex": "0xa",
          "logIndex": "0x5",
          "removed": false
        }
      ],
      "logsBloom": "0x00000000000000000000000000000000000000000000000000000000000000000000000000000080000000000000000000000000000000000000000000000000000000000000000000000000000000200800000000000000000000000000000002000000000000000000000000000000000000000000000000000000000000000000000000000000000000000000000000000000000000000000000000000000000000000000000000000000000000000000000000000000000000000000000000000000000000008000000000000000000000000000000000000000000000000080001000001000000100000000000000000000000000000000000000000000",
      "type": "0x2",
      "transactionHash": "0x8320507dc04ad909b995a71e74026fa9f8b089def48b0dcb82a775758f96eac9",
      "transactionIndex": "0xa",
      "blockHash": "0xefbbcd2ec30b0266c663c7bada8ace6d987a8a1bc190e42f9d330d68bcba7e18",
      "blockNumber": "0x29808e6",
      "gasUsed": "0xbb16",
      "effectiveGasPrice": "0x7a121",
      "blobGasUsed": "0x9c40",
      "from": "0x25f75573799a3aa37760d6be4b862aca70599b49",
      "to": "0x6777cfe2a72669da5a8087181e42ca3db29e7710",
      "contractAddress": null,
      "daFootprintGasScalar": "0x190",
      "l1BaseFeeScalar": "0x7d0",
      "l1BlobBaseFee": "0x38de6c9",
      "l1BlobBaseFeeScalar": "0xdbba0",
      "l1Fee": "0x1f1558256",
      "l1GasPrice": "0x3773bde6",
      "l1GasUsed": "0x640"
    }
  ],
  "libraries": [],
  "pending": [],
  "returns": {},
  "timestamp": 1770370610366,
  "chain": 1301,
  "commit": "f91328d"
}