{
  "transactions": [
    {
      "hash": "0xc81c868fc79cacf020c2317d43e22ddf63ff7669c91d4dafd38da6043235919f",
      "transactionType": "CREATE",
      "contractName": "RingVerifierMock",
      "contractAddress": "0x83737d098a6cce2283bfac677f7177bcd5e13c7e",
      "function": null,
      "arguments": null,
      "transaction": {
        "from": "0x25f75573799a3aa37760d6be4b862aca70599b49",
        "gas": "0x2fa0f",
        "value": "0x0",
        "input": "0x608080604052346015576101bf908161001a8239f35b5f80fdfe6080806040526004361015610012575f80fd5b5f3560e01c90816335d673141461017057508063a37641ff146101555763f64e8f481461003d575f80fd5b346101515760803660031901126101515760243567ffffffffffffffff8111610151573660238201121561015157806004013567ffffffffffffffff811161015157369101602401116101515760643567ffffffffffffffff811161015157366023820112156101515780600401359067ffffffffffffffff821161015157602436918360051b010111610151576002811061011b57600a106100e557602060405160018152f35b60405162461bcd60e51b815260206004820152600e60248201526d52696e6720746f6f206c6172676560901b6044820152606490fd5b60405162461bcd60e51b815260206004820152600e60248201526d149a5b99c81d1bdbc81cdb585b1b60921b6044820152606490fd5b5f80fd5b34610151575f366003190112610151576020604051600a8152f35b34610151575f3660031901126101515780600260209252f3fea264697066735822122083255ec2efaea0320c643b6aafee3bbe23734c77f8f65be1aaaa4a3e7abd74b864736f6c634300081a0033",
        "nonce": "0xe",
        "chainId": "0x515"
      },
      "additionalContracts": [],
      "isFixedGasLimit": false
    },
    {
      "hash": "0x4a20685936e19d16fe3f6fb57cadc4fe37bb719dde0650f8144558332f67a1ac",
      "transactionType": "CREATE2",
      "contractName": "SpectreHook",
      "contractAddress": "0xb51f08ea987e1ca926e6730aea5dd5aeb5e7c0c4",
      "function": null,
      "arguments": [
        "0x00B036B58a818B1BC34d502D3fE730Db729e62AC",
        "0x83737D098a6cCe2283bfac677F7177bcD5e13c7e",
        "0xA9e4ED4183b3B3cC364cF82dA7982D5ABE956307",
        "0x42013A72753F6EC28e27582D4cDb8425b44fd311"
      ],
      "transaction": {
        "from": "0x25f75573799a3aa37760d6be4b862aca70599b49",
        "to": "0x4e59b44847b379578588920ca78fbf26c0b4956c",
        "gas": "0x188a6a",
        "value": "0x0",
        "input": "0x0000000000000000000000000000000000000000000000000000000000002ccc610100604052346102fb57604051601f61170638819003918201601f19168301916001600160401b038311848410176102ff578084926080946040528339810103126102fb578051906001600160a01b03821682036102fb5760208101516001600160a01b03811681036102fb576040820151916001600160a01b03831683036102fb5760600151926001600160a01b03841684036102fb576080525f6101a06100a7610313565b8281528260208201528260408201528260608201528260808201528260a08201528260c08201528260e0820152826101008201528261012082015282610140820152826101608201528261018082015201525f6101a0610105610313565b8281528260208201528260408201528260608201528260808201528260a0820152600160c0820152600160e082015282610100820152826101208201528261014082015260016101608201528261018082015201526120003016158015906102ee575b80156102e1575b80156102d4575b80156102c7575b80156102ba575b80156102aa575b801561029a575b801561028e575b8015610282575b8015610276575b8015610266575b801561025a575b801561024e575b61023b5760a05260c05260e0526040516113d290816103348239608051818181610153015281816101d50152818161022701528181610430015281816104fa0152818161062901526106b6015260a0518181816105a50152610c27015260c05181818161049d0152610fb1015260e05181818161070901526110210152f35b630732d7b560e51b5f523060045260245ffd5b506001301615156101bc565b506002301615156101b5565b50600430161515600114156101ae565b506008301615156101a7565b506010301615156101a0565b50602030161515610199565b5060403016151560011415610192565b506080301615156001141561018b565b5061010030161515610184565b506102003016151561017d565b5061040030161515610176565b506108003016151561016f565b5061100030161515610168565b5f80fd5b634e487b7160e01b5f52604160045260245ffd5b604051906101c082016001600160401b038111838210176102ff5760405256fe6080806040526004361015610012575f80fd5b5f3560e01c9081631d5a897f146106f75750806321d0ee70146106a3578063259982e5146106a35780633461546514610256578063356997421461010e57806335d6731414610688578063575e24b4146105d45780636c2bbe7e146104e75780636df0dec1146105905780636fe7e6eb1461055857806383cd404d1461053d5780639f063efc146104e7578063a37641ff146104cc578063a743370414610488578063b47b2fb1146103da578063b6a8b0fa14610140578063c4e833ce14610273578063c59d484714610256578063dc4c90d314610212578063dc98354e146101a4578063e1b4af69146101405763e287a41a1461010e575f80fd5b3461013c57602036600319011261013c576004355f525f602052602060ff60405f2054166040519015158152f35b5f80fd5b3461013c5761014e36610881565b5050507f00000000000000000000000000000000000000000000000000000000000000006001600160a01b03163303925061019591505057630a85dc2960e01b5f5260045ffd5b63570c108560e11b5f5260045ffd5b3461013c5760e036600319011261013c576101bd610738565b5060a036602319011261013c576101d261085b565b507f00000000000000000000000000000000000000000000000000000000000000006001600160a01b0316330361019557630a85dc2960e01b5f5260045ffd5b3461013c575f36600319011261013c576040517f00000000000000000000000000000000000000000000000000000000000000006001600160a01b03168152602090f35b3461013c575f36600319011261013c576020600254604051908152f35b3461013c575f36600319011261013c575f6101a0604051610293816108d8565b8281528260208201528260408201528260608201528260808201528260a08201528260c08201528260e0820152826101008201528261012082015282610140820152826101608201528261018082015201526101c060206040516102f6816108d8565b5f8152818101905f8252604081015f8152606082015f8152608083015f815260a084015f815260c085016001815260e0860190600182526101008701925f84526101208801945f86526101408901965f88526101608a019860018a526101a06101808c019b5f8d52019b5f8d526040519d8e915f835251151591015251151560408d015251151560608c015251151560808b015251151560a08a015251151560c089015251151560e08801525115156101008701525115156101208601525115156101408501525115156101608401525115156101808301525115156101a0820152f35b3461013c5761016036600319011261013c576103f4610738565b60a036602319011261013c5760603660c319011261013c57610144356001600160401b03811161013c5761042c903690600401610762565b50507f00000000000000000000000000000000000000000000000000000000000000006001600160a01b031633036101955761046e6040916101243590610f3c565b82516001600160e01b03199092168252600f0b6020820152f35b3461013c575f36600319011261013c576040517f00000000000000000000000000000000000000000000000000000000000000006001600160a01b03168152602090f35b3461013c575f36600319011261013c576020604051600a8152f35b3461013c576104f5366107f2565b5050507f00000000000000000000000000000000000000000000000000000000000000006001600160a01b0316330393506101959250505057630a85dc2960e01b5f5260045ffd5b3461013c575f36600319011261013c57602060405160018152f35b3461013c5761010036600319011261013c57610572610738565b5060a036602319011261013c5761058761085b565b506101d2610871565b3461013c575f36600319011261013c576040517f00000000000000000000000000000000000000000000000000000000000000006001600160a01b03168152602090f35b3461013c5761014036600319011261013c576105ee610738565b60a036602319011261013c5760603660c319011261013c57610124356001600160401b03811161013c57610626903690600401610762565b917f00000000000000000000000000000000000000000000000000000000000000006001600160a01b031633036101955760609262ffffff9261066892610a8b565b906040939293519363ffffffff60e01b1684526020840152166040820152f35b3461013c575f36600319011261013c57602060405160028152f35b3461013c576106b13661078f565b5050507f00000000000000000000000000000000000000000000000000000000000000006001600160a01b031633039150610195905057630a85dc2960e01b5f5260045ffd5b3461013c575f36600319011261013c577f00000000000000000000000000000000000000000000000000000000000000006001600160a01b03168152602090f35b600435906001600160a01b038216820361013c57565b35906001600160a01b038216820361013c57565b9181601f8401121561013c578235916001600160401b03831161013c576020838186019501011161013c57565b9061016060031983011261013c576004356001600160a01b038116810361013c579160a060231982011261013c57602491608060c31983011261013c5760c49161014435906001600160401b03821161013c576107ee91600401610762565b9091565b906101a060031983011261013c576004356001600160a01b038116810361013c579160a060231982011261013c57602491608060c31983011261013c5760c4916101443591610164359161018435906001600160401b03821161013c576107ee91600401610762565b60c435906001600160a01b038216820361013c57565b60e435908160020b820361013c57565b61012060031982011261013c576004356001600160a01b038116810361013c579160a060231983011261013c5760249160c4359160e4359161010435906001600160401b03821161013c576107ee91600401610762565b6101c081019081106001600160401b038211176108f457604052565b634e487b7160e01b5f52604160045260245ffd5b90601f801991011681019081106001600160401b038211176108f457604052565b6001600160401b0381116108f457601f01601f191660200190565b81601f8201121561013c5780359061095b82610929565b926109696040519485610908565b8284526020838301011161013c57815f926020809301838601378301015290565b91908260a091031261013c5760405160a081018181106001600160401b038211176108f45760405280926109bd8161074e565b82526109cb6020820161074e565b6020830152604081013562ffffff8116810361013c5760408301526060810135908160020b820361013c57606083019190915260800135906001600160a01b038216820361013c5760800152565b805180835260209291819084018484015e5f828201840152601f01601f1916010190565b90600182811c92168015610a6b575b6020831014610a5757565b634e487b7160e01b5f52602260045260245ffd5b91607f1691610a4c565b818110610a80575050565b5f8155600101610a75565b90918015610ef65782019060808383031261013c5782356001600160401b03811161013c5782610abc918501610944565b9260208101359360408201356001600160401b03811161013c5782019184601f8401121561013c578235946001600160401b0386116108f4578560051b9360405196610b0b6020870189610908565b875260208701602081968301019183831161013c57602001905b828210610ede5750505060608201356001600160401b03811161013c57610b4c9201610944565b91845160028110908115610ed3575b50610ec457855f525f60205260ff60405f205416610eb55760a0610b8036602461098a565b2060c4359081151580830361013c579091506040519060208201928352604082015260e43560608201524660808201523060a082015260a08152610bc560c082610908565b51902090610bf2604051938493631ec9d1e960e31b85526004850152608060248501526084840190610a19565b87604484015260031983820301606484015260208751918281520191905f5b818110610e9357506020939283900391508290507f00000000000000000000000000000000000000000000000000000000000000006001600160a01b03165afa908115610e88575f91610e4d575b5015610e3e576042815103610e2f57835f525f60205260405f20600160ff1982541617905560405190606082018281106001600160401b038211176108f45760405281526020810184815260408201926001845260018060a01b03165f52600160205260405f2091518051906001600160401b0382116108f457610ce38454610a3d565b601f8111610df4575b50602090601f8311600114610d8d576002949392915f9183610d82575b50508160011b915f199060031b1c19161782555b516001820155019051151560ff801983541691161790557f5ad91a98fc7012ec1c9fe068f799b8462d2310026eb08d54897744151d84aa9c604060a0610d6436602461098a565b2092518151908152426020820152a36315d7892d60e21b905f908190565b015190505f80610d09565b90601f19831691855f52815f20925f5b818110610ddc575091600193918560029897969410610dc4575b505050811b018255610d1d565b01515f1960f88460031b161c191690555f8080610db7565b92936020600181928786015181550195019301610d9d565b610e1f90855f5260205f20601f850160051c81019160208610610e25575b601f0160051c0190610a75565b5f610cec565b9091508190610e12565b635d98b7a160e01b5f5260045ffd5b6321b9f69960e21b5f5260045ffd5b90506020813d602011610e80575b81610e6860209383610908565b8101031261013c5751801515810361013c575f610c5f565b3d9150610e5b565b6040513d5f823e3d90fd5b82516001600160a01b0316845285945060209384019390920191600101610c11565b63e596f2c960e01b5f5260045ffd5b634451147b60e01b5f5260045ffd5b600a9150115f610b5b565b60208091610eeb8461074e565b815201910190610b25565b506315d7892d60e21b925f9250829150565b600f0b6f7fffffffffffffffffffffffffffffff198114610f28575f0390565b634e487b7160e01b5f52601160045260245ffd5b6001600160a01b03165f8181526001602052604081206002810154919493909160ff161561138a5760405163e111c63360e01b815260206004820152825490925f918491610f8982610a3d565b918260248501526001811690815f14611369575060011461132c575b505f92829003905081837f00000000000000000000000000000000000000000000000000000000000000006001600160a01b03165af1908115610e88575f905f935f93611289575b5060c435801515810361013c571561126d57600f0b6044356001600160a01b038116810361013c57915b5f600f83900b13937f00000000000000000000000000000000000000000000000000000000000000006001600160a01b031691908515611257576001600160801b03845b6040519260ff60f81b9060f81b1660208401526bffffffffffffffffffffffff198760601b1660218401521660358201526035815261109b605582610908565b823b1561013c576110f9926110e75f809460405196879586948593634d1f958360e01b85526001600486015260018060a01b03169d8e6024860152608060448601526084850190610a19565b83810360031901606485015290610a19565b03925af18015610e8857611213575b507ff92035e199ab8751a785b4e109e89a0a3c45c3ce73779cb8ce30a6902a87a182916001600160801b0360609260a061114336602461098a565b209515611205575b604080516001600160a01b039094168452911660208301524290820152a36002545f1981146111f15760010160025582526001602052816002604082206111928154610a3d565b806111ae575b5060018101839055015563b47b2fb160e01b9190565b601f81116001146111c457508281555b5f611198565b818452602084206111e091601f0160051c810190600101610a75565b8083528260208120818355556111be565b634e487b7160e01b84526011600452602484fd5b61120e90610f08565b61114b565b6060919750916112445f7ff92035e199ab8751a785b4e109e89a0a3c45c3ce73779cb8ce30a6902a87a18294610908565b6001600160801b035f9892505091611108565b6001600160801b0361126885610f08565b61105b565b60801d6024356001600160a01b038116810361013c5791611017565b93509150503d805f843e61129d8184610908565b820160608382031261013c578251926001600160a01b038416840361013c5760208101516001600160401b03811161013c5781019082601f8301121561013c5781516112e881610929565b936112f66040519586610908565b8185526020828501011161013c576020815f9282604096018388015e8501015201519260ff8416840361013c579092915f610fed565b5f90815260208120929350915b81831061134f575050810160440190805f610fa5565b805460448488010152859350602090920191600101611339565b5f9550604492508493915060ff191682840152151560051b82010192610fa5565b5063b47b2fb160e01b93505f9291505056fea2646970667358221220d645e540366ca8e23283adab4576a68030b34fad95739182b8e77bfc454fdec264736f6c634300081a003300000000000000000000000000b036b58a818b1bc34d502d3fe730db729e62ac00000000000000000000000083737d098a6cce2283bfac677f7177bcd5e13c7e000000000000000000000000a9e4ed4183b3b3cc364cf82da7982d5abe95630700000000000000000000000042013a72753f6ec28e27582d4cdb8425b44fd311",
        "nonce": "0xf",
        "chainId": "0x515"
      },
      "additionalContracts": [],
      "isFixedGasLimit": false
    },
    {
      "hash": "0x359a75b1a42be8311e213a48fc9e0a6c2e31316a1e1c2fbb562530efe76e98e6",
      "transactionType": "CREATE",
      "contractName": "TestERC20",
      "contractAddress": "0xe2ad3068ad183595152269a81ee72f44a176880c",
      "function": null,
      "arguments": [
        "Private Token A",
        "PTA",
        "18"
      ],
      "transaction": {
        "from": "0x25f75573799a3aa37760d6be4b862aca70599b49",
        "gas": "0xe1b83",
        "value": "0x0",
        "input": "0x60e0806040523461040657610f8b803803809161001c828561040a565b83398101906060818303126104065780516001600160401b038111610406578261004791830161042d565b60208201519092906001600160401b0381116104065760409161006b91840161042d565b91015160ff811681036104065782516001600160401b038111610337576100925f54610482565b601f81116103b7575b506020601f821160011461035657819293945f9261034b575b50508160011b915f199060031b1c1916175f555b81516001600160401b038111610337576100e3600154610482565b601f81116102d4575b50602092601f821160011461027357928192935f92610268575b50508160011b915f199060031b1c1916176001555b6080524660a0526040515f905f54918161013484610482565b9182825260208201946001811690815f1461024c5750600114610202575b61015e9250038261040a565b51902060405160208101917f8b73c3c69bb8fe3d512ecc4cf759cc79239f7b179b0ffacaa9a75d522b39400f835260408201527fc89efdaa54c0f20c7adf612882df0950f5a951637e0307cdcb4c672f298b8bc660608201524660808201523060a082015260a081526101d260c08261040a565b51902060c052604051610ab090816104bb8239608051816105e3015260a051816108e3015260c051816109090152f35b505f80805290915f80516020610f6b8339815191525b81831061023057505090602061015e92820101610152565b6020919350806001915483858801015201910190918392610218565b60ff191686525061015e92151560051b82016020019050610152565b015190505f80610106565b601f1982169360015f52805f20915f5b8681106102bc57508360019596106102a4575b505050811b0160015561011b565b01515f1960f88460031b161c191690555f8080610296565b91926020600181928685015181550194019201610283565b60015f527fb10e2d527612073b26eecdfd717e6a320cf44b4afac2b0732d9fcbe2b7fa0cf6601f830160051c8101916020841061032d575b601f0160051c01905b81811061032257506100ec565b5f8155600101610315565b909150819061030c565b634e487b7160e01b5f52604160045260245ffd5b015190505f806100b4565b601f198216905f8052805f20915f5b81811061039f57509583600195969710610387575b505050811b015f556100c8565b01515f1960f88460031b161c191690555f808061037a565b9192602060018192868b015181550194019201610365565b5f80525f80516020610f6b833981519152601f830160051c810191602084106103fc575b601f0160051c01905b8181106103f1575061009b565b5f81556001016103e4565b90915081906103db565b5f80fd5b601f909101601f19168101906001600160401b0382119082101761033757604052565b81601f82011215610406578051906001600160401b0382116103375760405192610461601f8401601f19166020018561040a565b8284526020838301011161040657815f9260208093018386015e8301015290565b90600182811c921680156104b0575b602083101461049c57565b634e487b7160e01b5f52602260045260245ffd5b91607f169161049156fe60806040526004361015610011575f80fd5b5f3560e01c806306fdde031461076d578063095ea7b3146106f457806318160ddd146106d757806323b872dd14610607578063313ce567146105ca5780633644e515146105a857806340c10f191461053057806370a08231146104f85780637ecebe00146104c057806395d89b41146103e65780639dc29fac14610386578063a9059cbb14610311578063d505accf146101075763dd62ed3e146100b3575f80fd5b34610103576040366003190112610103576100cc6108a7565b6100d46108bd565b6001600160a01b039182165f908152600460209081526040808320949093168252928352819020549051908152f35b5f80fd5b346101035760e0366003190112610103576101206108a7565b6101286108bd565b6044356064359260843560ff8116809103610103574285106102cc5760805f916020936101536108e0565b9060018060a01b03169687855260058652604085209889549960018b01905560405190878201927f6e71edae12b1b97f4d1f60370fef10105fa2faae0126114a169c64845d6126c984528a604084015260018060a01b03169a8b6060840152898784015260a083015260c082015260c081526101d060e082610847565b519020604051908682019261190160f01b845260228301526042820152604281526101fc606282610847565b519020906040519182528482015260a435604082015260c435606082015282805260015afa156102c1575f516001600160a01b0316801515806102b8575b15610282577f8c5be1e5ebec7d5bd14f71427d1e84f3dd0314c0f7b2291e5b200ac8c7c3b925916020915f526004825260405f20855f5282528060405f2055604051908152a3005b60405162461bcd60e51b815260206004820152600e60248201526d24a72b20a624a22fa9a4a3a722a960911b6044820152606490fd5b5082811461023a565b6040513d5f823e3d90fd5b60405162461bcd60e51b815260206004820152601760248201527f5045524d49545f444541444c494e455f455850495245440000000000000000006044820152606490fd5b346101035760403660031901126101035761032a6108a7565b60243590335f52600360205260405f206103458382546108d3565b905560018060a01b031690815f52600360205260405f208181540190556040519081525f80516020610a5b83398151915260203392a3602060405160018152f35b34610103576040366003190112610103575f6103a06108a7565b5f80516020610a5b83398151915260206024359260018060a01b03169283855260038252604085206103d38282546108d3565b90558060025403600255604051908152a3005b34610103575f366003190112610103576040515f6001546104068161080f565b808452906001811690811561049c575060011461043e575b61043a8361042e81850382610847565b6040519182918261087d565b0390f35b60015f9081527fb10e2d527612073b26eecdfd717e6a320cf44b4afac2b0732d9fcbe2b7fa0cf6939250905b8082106104825750909150810160200161042e61041e565b91926001816020925483858801015201910190929161046a565b60ff191660208086019190915291151560051b8401909101915061042e905061041e565b34610103576020366003190112610103576001600160a01b036104e16108a7565b165f526005602052602060405f2054604051908152f35b34610103576020366003190112610103576001600160a01b036105196108a7565b165f526003602052602060405f2054604051908152f35b34610103576040366003190112610103576105496108a7565b60243590600254908282018092116105945760205f80516020610a5b833981519152915f9360025560018060a01b0316938484526003825260408420818154019055604051908152a3005b634e487b7160e01b5f52601160045260245ffd5b34610103575f3660031901126101035760206105c26108e0565b604051908152f35b34610103575f36600319011261010357602060405160ff7f0000000000000000000000000000000000000000000000000000000000000000168152f35b34610103576060366003190112610103576106206108a7565b6106286108bd565b6001600160a01b039091165f818152600460209081526040808320338452825290912054604435935f80516020610a5b833981519152929185600182016106b2575b5050835f526003825260405f206106828682546108d3565b90556001600160a01b03165f818152600383526040908190208054870190555194855293a3602060405160018152f35b6106bb916108d3565b5f8581526004845260408082203383528552902055858561066a565b34610103575f366003190112610103576020600254604051908152f35b346101035760403660031901126101035761070d6108a7565b335f8181526004602090815260408083206001600160a01b03909516808452948252918290206024359081905591519182527f8c5be1e5ebec7d5bd14f71427d1e84f3dd0314c0f7b2291e5b200ac8c7c3b92591a3602060405160018152f35b34610103575f366003190112610103576040515f805461078c8161080f565b808452906001811690811561049c57506001146107b35761043a8361042e81850382610847565b5f8080527f290decd9548b62a8d60345a988386fc84ba6bc95484008f6362f93160ef3e563939250905b8082106107f55750909150810160200161042e61041e565b9192600181602092548385880101520191019092916107dd565b90600182811c9216801561083d575b602083101461082957565b634e487b7160e01b5f52602260045260245ffd5b91607f169161081e565b90601f8019910116810190811067ffffffffffffffff82111761086957604052565b634e487b7160e01b5f52604160045260245ffd5b602060409281835280519182918282860152018484015e5f828201840152601f01601f1916010190565b600435906001600160a01b038216820361010357565b602435906001600160a01b038216820361010357565b9190820391821161059457565b467f00000000000000000000000000000000000000000000000000000000000000000361092b577f000000000000000000000000000000000000000000000000000000000000000090565b6040515f905f54918161093d8461080f565b9182825260208201946001811690815f14610a3e57506001146109e1575b61096792500382610847565b51902060405160208101917f8b73c3c69bb8fe3d512ecc4cf759cc79239f7b179b0ffacaa9a75d522b39400f835260408201527fc89efdaa54c0f20c7adf612882df0950f5a951637e0307cdcb4c672f298b8bc660608201524660808201523060a082015260a081526109db60c082610847565b51902090565b505f80805290917f290decd9548b62a8d60345a988386fc84ba6bc95484008f6362f93160ef3e5635b818310610a225750509060206109679282010161095b565b6020919350806001915483858801015201910190918392610a0a565b60ff191686525061096792151560051b8201602001905061095b56feddf252ad1be2c89b69c2b068fc378daa952ba7f163c4a11628f55a4df523b3efa2646970667358221220119944d2d70b7cbab6836193924c94ed707d2bbf7b75765c28c0b0eb540bfc2164736f6c634300081a0033290decd9548b62a8d60345a988386fc84ba6bc95484008f6362f93160ef3e563000000000000000000000000000000000000000000000000000000000000006000000000000000000000000000000000000000000000000000000000000000a00000000000000000000000000000000000000000000000000000000000000012000000000000000000000000000000000000000000000000000000000000000f5072697661746520546f6b656e2041000000000000000000000000000000000000000000000000000000000000000000000000000000000000000000000000035054410000000000000000000000000000000000000000000000000000000000",
        "nonce": "0x10",
        "chainId": "0x515"
      },
      "additionalContracts": [],
      "isFixedGasLimit": false
    },
    {
      "hash": "0xb8378243934e77f572489ca83b2f6c4fa0c615cbc67440fb9e7d123f40073958",
      "transactionType": "CREATE",
      "contractName": "TestERC20",
      "contractAddress": "0x32cca622f5cd2b45a937c4e8536743c756187127",
      "function": null,
      "arguments": [
        "Private Token B",
        "PTB",
        "18"
      ],
      "transaction": {
        "from": "0x25f75573799a3aa37760d6be4b862aca70599b49",
        "gas": "0xe1b83",
        "value": "0x0",
        "input": "0x60e0806040523461040657610f8b803803809161001c828561040a565b83398101906060818303126104065780516001600160401b038111610406578261004791830161042d565b60208201519092906001600160401b0381116104065760409161006b91840161042d565b91015160ff811681036104065782516001600160401b038111610337576100925f54610482565b601f81116103b7575b506020601f821160011461035657819293945f9261034b575b50508160011b915f199060031b1c1916175f555b81516001600160401b038111610337576100e3600154610482565b601f81116102d4575b50602092601f821160011461027357928192935f92610268575b50508160011b915f199060031b1c1916176001555b6080524660a0526040515f905f54918161013484610482565b9182825260208201946001811690815f1461024c5750600114610202575b61015e9250038261040a565b51902060405160208101917f8b73c3c69bb8fe3d512ecc4cf759cc79239f7b179b0ffacaa9a75d522b39400f835260408201527fc89efdaa54c0f20c7adf612882df0950f5a951637e0307cdcb4c672f298b8bc660608201524660808201523060a082015260a081526101d260c08261040a565b51902060c052604051610ab090816104bb8239608051816105e3015260a051816108e3015260c051816109090152f35b505f80805290915f80516020610f6b8339815191525b81831061023057505090602061015e92820101610152565b6020919350806001915483858801015201910190918392610218565b60ff191686525061015e92151560051b82016020019050610152565b015190505f80610106565b601f1982169360015f52805f20915f5b8681106102bc57508360019596106102a4575b505050811b0160015561011b565b01515f1960f88460031b161c191690555f8080610296565b91926020600181928685015181550194019201610283565b60015f527fb10e2d527612073b26eecdfd717e6a320cf44b4afac2b0732d9fcbe2b7fa0cf6601f830160051c8101916020841061032d575b601f0160051c01905b81811061032257506100ec565b5f8155600101610315565b909150819061030c565b634e487b7160e01b5f52604160045260245ffd5b015190505f806100b4565b601f198216905f8052805f20915f5b81811061039f57509583600195969710610387575b505050811b015f556100c8565b01515f1960f88460031b161c191690555f808061037a565b9192602060018192868b015181550194019201610365565b5f80525f80516020610f6b833981519152601f830160051c810191602084106103fc575b601f0160051c01905b8181106103f1575061009b565b5f81556001016103e4565b90915081906103db565b5f80fd5b601f909101601f19168101906001600160401b0382119082101761033757604052565b81601f82011215610406578051906001600160401b0382116103375760405192610461601f8401601f19166020018561040a565b8284526020838301011161040657815f9260208093018386015e8301015290565b90600182811c921680156104b0575b602083101461049c57565b634e487b7160e01b5f52602260045260245ffd5b91607f169161049156fe60806040526004361015610011575f80fd5b5f3560e01c806306fdde031461076d578063095ea7b3146106f457806318160ddd146106d757806323b872dd14610607578063313ce567146105ca5780633644e515146105a857806340c10f191461053057806370a08231146104f85780637ecebe00146104c057806395d89b41146103e65780639dc29fac14610386578063a9059cbb14610311578063d505accf146101075763dd62ed3e146100b3575f80fd5b34610103576040366003190112610103576100cc6108a7565b6100d46108bd565b6001600160a01b039182165f908152600460209081526040808320949093168252928352819020549051908152f35b5f80fd5b346101035760e0366003190112610103576101206108a7565b6101286108bd565b6044356064359260843560ff8116809103610103574285106102cc5760805f916020936101536108e0565b9060018060a01b03169687855260058652604085209889549960018b01905560405190878201927f6e71edae12b1b97f4d1f60370fef10105fa2faae0126114a169c64845d6126c984528a604084015260018060a01b03169a8b6060840152898784015260a083015260c082015260c081526101d060e082610847565b519020604051908682019261190160f01b845260228301526042820152604281526101fc606282610847565b519020906040519182528482015260a435604082015260c435606082015282805260015afa156102c1575f516001600160a01b0316801515806102b8575b15610282577f8c5be1e5ebec7d5bd14f71427d1e84f3dd0314c0f7b2291e5b200ac8c7c3b925916020915f526004825260405f20855f5282528060405f2055604051908152a3005b60405162461bcd60e51b815260206004820152600e60248201526d24a72b20a624a22fa9a4a3a722a960911b6044820152606490fd5b5082811461023a565b6040513d5f823e3d90fd5b60405162461bcd60e51b815260206004820152601760248201527f5045524d49545f444541444c494e455f455850495245440000000000000000006044820152606490fd5b346101035760403660031901126101035761032a6108a7565b60243590335f52600360205260405f206103458382546108d3565b905560018060a01b031690815f52600360205260405f208181540190556040519081525f80516020610a5b83398151915260203392a3602060405160018152f35b34610103576040366003190112610103575f6103a06108a7565b5f80516020610a5b83398151915260206024359260018060a01b03169283855260038252604085206103d38282546108d3565b90558060025403600255604051908152a3005b34610103575f366003190112610103576040515f6001546104068161080f565b808452906001811690811561049c575060011461043e575b61043a8361042e81850382610847565b6040519182918261087d565b0390f35b60015f9081527fb10e2d527612073b26eecdfd717e6a320cf44b4afac2b0732d9fcbe2b7fa0cf6939250905b8082106104825750909150810160200161042e61041e565b91926001816020925483858801015201910190929161046a565b60ff191660208086019190915291151560051b8401909101915061042e905061041e565b34610103576020366003190112610103576001600160a01b036104e16108a7565b165f526005602052602060405f2054604051908152f35b34610103576020366003190112610103576001600160a01b036105196108a7565b165f526003602052602060405f2054604051908152f35b34610103576040366003190112610103576105496108a7565b60243590600254908282018092116105945760205f80516020610a5b833981519152915f9360025560018060a01b0316938484526003825260408420818154019055604051908152a3005b634e487b7160e01b5f52601160045260245ffd5b34610103575f3660031901126101035760206105c26108e0565b604051908152f35b34610103575f36600319011261010357602060405160ff7f0000000000000000000000000000000000000000000000000000000000000000168152f35b34610103576060366003190112610103576106206108a7565b6106286108bd565b6001600160a01b039091165f818152600460209081526040808320338452825290912054604435935f80516020610a5b833981519152929185600182016106b2575b5050835f526003825260405f206106828682546108d3565b90556001600160a01b03165f818152600383526040908190208054870190555194855293a3602060405160018152f35b6106bb916108d3565b5f8581526004845260408082203383528552902055858561066a565b34610103575f366003190112610103576020600254604051908152f35b346101035760403660031901126101035761070d6108a7565b335f8181526004602090815260408083206001600160a01b03909516808452948252918290206024359081905591519182527f8c5be1e5ebec7d5bd14f71427d1e84f3dd0314c0f7b2291e5b200ac8c7c3b92591a3602060405160018152f35b34610103575f366003190112610103576040515f805461078c8161080f565b808452906001811690811561049c57506001146107b35761043a8361042e81850382610847565b5f8080527f290decd9548b62a8d60345a988386fc84ba6bc95484008f6362f93160ef3e563939250905b8082106107f55750909150810160200161042e61041e565b9192600181602092548385880101520191019092916107dd565b90600182811c9216801561083d575b602083101461082957565b634e487b7160e01b5f52602260045260245ffd5b91607f169161081e565b90601f8019910116810190811067ffffffffffffffff82111761086957604052565b634e487b7160e01b5f52604160045260245ffd5b602060409281835280519182918282860152018484015e5f828201840152601f01601f1916010190565b600435906001600160a01b038216820361010357565b602435906001600160a01b038216820361010357565b9190820391821161059457565b467f00000000000000000000000000000000000000000000000000000000000000000361092b577f000000000000000000000000000000000000000000000000000000000000000090565b6040515f905f54918161093d8461080f565b9182825260208201946001811690815f14610a3e57506001146109e1575b61096792500382610847565b51902060405160208101917f8b73c3c69bb8fe3d512ecc4cf759cc79239f7b179b0ffacaa9a75d522b39400f835260408201527fc89efdaa54c0f20c7adf612882df0950f5a951637e0307cdcb4c672f298b8bc660608201524660808201523060a082015260a081526109db60c082610847565b51902090565b505f80805290917f290decd9548b62a8d60345a988386fc84ba6bc95484008f6362f93160ef3e5635b818310610a225750509060206109679282010161095b565b6020919350806001915483858801015201910190918392610a0a565b60ff191686525061096792151560051b8201602001905061095b56feddf252ad1be2c89b69c2b068fc378daa952ba7f163c4a11628f55a4df523b3efa2646970667358221220119944d2d70b7cbab6836193924c94ed707d2bbf7b75765c28c0b0eb540bfc2164736f6c634300081a0033290decd9548b62a8d60345a988386fc84ba6bc95484008f6362f93160ef3e563000000000000000000000000000000000000000000000000000000000000006000000000000000000000000000000000000000000000000000000000000000a00000000000000000000000000000000000000000000000000000000000000012000000000000000000000000000000000000000000000000000000000000000f5072697661746520546f6b656e2042000000000000000000000000000000000000000000000000000000000000000000000000000000000000000000000000035054420000000000000000000000000000000000000000000000000000000000",
        "nonce": "0x11",
        "chainId": "0x515"
      },
      "additionalContracts": [],
      "isFixedGasLimit": false
    },
    {
      "hash": "0xca972d39403b6a955c8723903ab8421c1d6a1c102d431ccbfa6e97ce58126e72",
      "transactionType": "CALL",
      "contractName": "TestERC20",
      "contractAddress": "0x32cca622f5cd2b45a937c4e8536743c756187127",
      "function": "mint(address,uint256)",
      "arguments": [
        "0x25f75573799A3Aa37760D6bE4b862acA70599b49",
        "1000000000000000000000000"
      ],
      "transaction": {
        "from": "0x25f75573799a3aa37760d6be4b862aca70599b49",
        "to": "0x32cca622f5cd2b45a937c4e8536743c756187127",
        "gas": "0x16fa8",
        "value": "0x0",
        "input": "0x40c10f1900000000000000000000000025f75573799a3aa37760d6be4b862aca70599b4900000000000000000000000000000000000000000000d3c21bcecceda1000000",
        "nonce": "0x12",
        "chainId": "0x515"
      },
      "additionalContracts": [],
      "isFixedGasLimit": false
    },
    {
      "hash": "0x8004c0d0d1e20269b6c2c0697413649be692cb54969625d1f952a632eff89a82",
      "transactionType": "CALL",
      "contractName": "TestERC20",
      "contractAddress": "0xe2ad3068ad183595152269a81ee72f44a176880c",
      "function": "mint(address,uint256)",
      "arguments": [
        "0x25f75573799A3Aa37760D6bE4b862acA70599b49",
        "1000000000000000000000000"
      ],
      "transaction": {
        "from": "0x25f75573799a3aa37760d6be4b862aca70599b49",
        "to": "0xe2ad3068ad183595152269a81ee72f44a176880c",
        "gas": "0x16fa8",
        "value": "0x0",
        "input": "0x40c10f1900000000000000000000000025f75573799a3aa37760d6be4b862aca70599b4900000000000000000000000000000000000000000000d3c21bcecceda1000000",
        "nonce": "0x13",
        "chainId": "0x515"
      },
      "additionalContracts": [],
      "isFixedGasLimit": false
    },
    {
      "hash": "0xd98431fa6de7f4ebac42d803307281dc7ffbda1a1d18d6c6ad482783a6e83e1c",
      "transactionType": "CREATE",
      "contractName": "PoolTestHelper",
      "contractAddress": "0x8d5af9050d765a1b67785ae4cec595360e2a29c7",
      "function": null,
      "arguments": [
        "0x00B036B58a818B1BC34d502D3fE730Db729e62AC"
      ],
      "transaction": {
        "from": "0x25f75573799a3aa37760d6be4b862aca70599b49",
        "gas": "0x186a74",
        "value": "0x0",
        "input": "0x60a034608f57601f6115ed38819003918201601f19168301916001600160401b03831184841017609357808492602094604052833981010312608f57516001600160a01b0381168103608f5760805260405161154590816100a8823960805181818160ae01528181610270015281816103ef0152818161080401528181610f4b0152818161101101526110850152f35b5f80fd5b634e487b7160e01b5f52604160045260245ffdfe6080604052600436101561001a575b3615610018575f80fd5b005b5f3560e01c806391dd73461461062d578063b49231b31461041e578063dc4c90d3146103da578063f6d8477f1461013c5763f70204050361000e57346101255760c03660031901126101255761006f36610719565b60a4356001600160a01b038116908190036101255760405163313b65df60e11b8152916100a0906004840190610c0f565b60a482015260208160c4815f7f00000000000000000000000000000000000000000000000000000000000000006001600160a01b03165af18015610131575f906100f3575b6020906040519060020b8152f35b506020813d602011610129575b8161010d602093836106e1565b8101031261012557610120602091610d8f565b6100e5565b5f80fd5b3d9150610100565b6040513d5f823e3d90fd5b34610125576101403660031901126101255761015736610719565b60a435908160020b8092036101255760c435908160020b809203610125576101f1926101ff92610185610702565b91610197604051946020860190610c0f565b60c084015260e083015260e435610100830152610104356101208301526001600160a01b03166101408083019190915281526101d5610160826106e1565b6040519283915f602084015260408084015260608301906106a2565b03601f1981018352826106e1565b80516001600160401b0381116103c6576102195f54610c52565b601f811161035f575b50602091601f82116001146102f6579181925f926102eb575b50508160011b915f199060031b1c1916175f555b6040516348c8949160e01b81525f818061026b60048201610cf5565b0381837f00000000000000000000000000000000000000000000000000000000000000006001600160a01b03165af1908115610131575f916102c9575b50602081519181808201938492010103126101255760209051604051908152f35b6102e591503d805f833e6102dd81836106e1565b810190610cd0565b816102a8565b01519050828061023b565b601f198216925f80525f805160206114f0833981519152915f5b8581106103475750836001951061032f575b505050811b015f5561024f565b01515f1960f88460031b161c19169055828080610322565b91926020600181928685015181550194019201610310565b5f8052601f820160051c5f805160206114f08339815191520190602083106103b1575b601f0160051c5f805160206114f083398151915201905b8181106103a65750610222565b5f8155600101610399565b5f805160206114f08339815191529150610382565b634e487b7160e01b5f52604160045260245ffd5b34610125575f366003190112610125576040517f00000000000000000000000000000000000000000000000000000000000000006001600160a01b03168152602090f35b34610125576101403660031901126101255761043936610719565b60a4358015158091036101255760e4356001600160a01b038116908190036101255761010435906001600160401b038211610125576101f19361050c936104cf6104ef9361048e6104a89636906004016107bb565b90610497610702565b936040519788966020880190610c0f565b60c086015260c43560e08601526101008501526101406101208501526101608401906106a2565b6001600160a01b039190911661014083015203601f1981018352826106e1565b6040519283916001602084015260408084015260608301906106a2565b80516001600160401b0381116103c6576105265f54610c52565b601f81116105c6575b50602091601f8211600114610576579181925f926102eb5750508160011b915f199060031b1c1916175f556040516348c8949160e01b81525f818061026b60048201610cf5565b601f198216925f80525f805160206114f0833981519152915f5b8581106105ae5750836001951061032f57505050811b015f5561024f565b91926020600181928685015181550194019201610590565b5f8052601f820160051c5f805160206114f0833981519152019060208310610618575b601f0160051c5f805160206114f083398151915201905b81811061060d575061052f565b5f8155600101610600565b5f805160206114f083398151915291506105e9565b34610125576020366003190112610125576004356001600160401b0381116101255736602382011215610125578060040135906001600160401b0382116101255736602483830101116101255761069e91602461068a9201610801565b6040519182916020835260208301906106a2565b0390f35b805180835260209291819084018484015e5f828201840152601f01601f1916010190565b60a081019081106001600160401b038211176103c657604052565b90601f801991011681019081106001600160401b038211176103c657604052565b61012435906001600160a01b038216820361012557565b60a09060031901126101255760405190610732826106c6565b816004356001600160a01b03811681036101255781526024356001600160a01b038116810361012557602082015260443562ffffff811681036101255760408201526064358060020b8103610125576060820152608435906001600160a01b03821682036101255760800152565b6001600160401b0381116103c657601f01601f191660200190565b81601f82011215610125578035906107d2826107a0565b926107e060405194856106e1565b8284526020838301011161012557815f926020809301838601378301015290565b907f00000000000000000000000000000000000000000000000000000000000000006001600160a01b03169033829003610bd7578201916040818403126101255780359260028410156101255760208201356001600160401b0381116101255761086b92016107bb565b9180610a4557508151820161014083820312610125576020610891910160208401610db1565b9161089e60c08201610d8f565b916108ab60e08301610d8f565b6101008301516101208401519361090d906001600160a01b03906108d29061014001610d9d565b16946108fa6108e0886111c2565b936108ea866111c2565b946001600160a01b031690610f35565b60601c926001600160a01b031690610f35565b60601c80821015610a3d5750935b6001600160801b038511610a2e575b604051608081018181106001600160401b038211176103c657604094610164935f92875260020b8352602083019460020b85526001600160801b03868401981688526060830182815286519889968795632d35e7ed60e11b87526109928d6004890190610c0f565b5160020b60a48701525160020b60c48601525160e485015251610104840152610140610124840152816101448401525af1918215610131575f926109f8575b50816109dd9293610e6c565b604051906020820152602081526109f56040826106e1565b90565b91506040823d604011610a26575b81610a13604093836106e1565b81010312610125576109dd9151916109d1565b3d9150610a06565b6001600160801b03945061092a565b90509361091b565b600114610a825760405162461bcd60e51b815260206004820152600e60248201526d2ab735b737bbb71030b1ba34b7b760911b6044820152606490fd5b8151820191610140816020850194031261012557610aa38360208301610db1565b92610ab060c08301610e2b565b60e0830151610100840151909491926001600160a01b038216929183900361012557610120850151906001600160401b038211610125576020610af592870101610c8a565b936001600160a01b0390610b0c9061014001610d9d565b16936040519260608401948486106001600160401b038711176103c65760409586521515845260208481019788528486019182529451633cf3645360e21b815296879485935f938593610b9793610b66600487018f610c0f565b51151560a48601525160c4850152516001600160a01b031660e48401526101206101048401526101248301906106a2565b03925af1918215610131575f92610bb45750816109dd9293610e6c565b91506020823d602011610bcf575b81610a13602093836106e1565b3d9150610bc2565b60405162461bcd60e51b815260206004820152601060248201526f27b7363c902837b7b626b0b730b3b2b960811b6044820152606490fd5b80516001600160a01b03908116835260208083015182169084015260408083015162ffffff169084015260608083015160020b9084015260809182015116910152565b90600182811c92168015610c80575b6020831014610c6c57565b634e487b7160e01b5f52602260045260245ffd5b91607f1691610c61565b81601f8201121561012557805190610ca1826107a0565b92610caf60405194856106e1565b8284526020838301011161012557815f9260208093018386015e8301015290565b906020828203126101255781516001600160401b038111610125576109f59201610c8a565b602081525f905f5490610d0782610c52565b918260208301526001811690815f14610d655750600114610d2757505090565b5f8080529192505f805160206114f08339815191525b838310610d4e575060409250010190565b805460408484010152602090920191600101610d3d565b90506040935060ff929192191683830152151560051b010190565b90816020910312610125575190565b51908160020b820361012557565b51906001600160a01b038216820361012557565b91908260a091031261012557604051610dc9816106c6565b8092610dd481610d9d565b8252610de260208201610d9d565b602083015260408101519062ffffff82168203610125576080916040840152610e0d60608201610d8f565b60608401520151906001600160a01b03821682036101255760800152565b5190811515820361012557565b600f0b6f7fffffffffffffffffffffffffffffff198114610e58575f0390565b634e487b7160e01b5f52601160045260245ffd5b918160801d9180600f0b9280600f0b5f81125f14610f025750610eac9083610e9d60018060a01b0388511692610e38565b6001600160801b031691610fd5565b5f831215610ed15750610e9d610ecf93602060018060a01b039101511692610e38565b565b915f12610edd57505050565b602090920151610ecf926001600160801b0390921691906001600160a01b0316610f48565b5f12610f0f575b50610eac565b8451610f2f916001600160801b03169084906001600160a01b0316610f48565b5f610f09565b81810292918115918404141715610e5857565b907f00000000000000000000000000000000000000000000000000000000000000006001600160a01b0316803b1561012557604051630b0d9c0960e01b81526001600160a01b0393841660048201529190921660248201526001600160801b039290921660448301525f908290606490829084905af1801561013157610fcb5750565b5f610ecf916106e1565b9192915f916001600160a01b039091169081611081575050604051630476982d60e21b81529192602090839060049082906001600160801b03167f00000000000000000000000000000000000000000000000000000000000000006001600160a01b03165af1908115611075575061104a5750565b61106b9060203d60201161106e575b61106381836106e1565b810190610d80565b50565b503d611059565b604051903d90823e3d90fd5b90937f00000000000000000000000000000000000000000000000000000000000000006001600160a01b031691823b1561012557604051632961046560e21b815260048101879052955f8760248183885af1968715610131576001600160801b03976111a4575b506020929185606492604051998a9586946323b872dd60e01b865260018060a01b031660048601528860248601521660448401525af193841561119957829394611155575b50602090600460405180958193630476982d60e21b83525af1908115611075575061104a5750565b9091506020813d602011611191575b81611171602093836106e1565b8101031261118d578291611186602092610e2b565b509061112d565b8280fd5b3d9150611164565b6040513d84823e3d90fd5b6064919550916111b75f602095946106e1565b5f95915091926110e8565b60020b908160ff1d82810118620d89e881116114dc5763ffffffff9192600182167001fffcb933bd6fad37aa2d162d1a59400102600160801b1891600281166114c0575b600481166114a4575b60088116611488575b6010811661146c575b60208116611450575b60408116611434575b60808116611418575b61010081166113fc575b61020081166113e0575b61040081166113c4575b61080081166113a8575b611000811661138c575b6120008116611370575b6140008116611354575b6180008116611338575b62010000811661131c575b620200008116611301575b6204000081166112e6575b62080000166112cd575b5f126112c5575b0160201c90565b5f19046112be565b6b048a170391f7dc42444e8fa290910260801c906112b7565b6d2216e584f5fa1ea926041bedfe9890920260801c916112ad565b916e5d6af8dedb81196699c329225ee6040260801c916112a2565b916f09aa508b5b7a84e1c677de54f3e99bc90260801c91611297565b916f31be135f97d08fd981231505542fcfa60260801c9161128c565b916f70d869a156d2a1b890bb3df62baf32f70260801c91611282565b916fa9f746462d870fdf8a65dc1f90e061e50260801c91611278565b916fd097f3bdfd2022b8845ad8f792aa58250260801c9161126e565b916fe7159475a2c29b7443b29c7fa6e889d90260801c91611264565b916ff3392b0822b70005940c7a398e4b70f30260801c9161125a565b916ff987a7253ac413176f2b074cf7815e540260801c91611250565b916ffcbe86c7900a88aedcffc83b479aa3a40260801c91611246565b916ffe5dee046a99a2a811c461f1969c30530260801c9161123c565b916fff2ea16466c96a3843ec78b326b528610260801c91611233565b916fff973b41fa98c081472e6896dfb254c00260801c9161122a565b916fffcb9843d60f6159c9db58835c9266440260801c91611221565b916fffe5caca7e10e4e61c3624eaa0941cd00260801c91611218565b916ffff2e50f5f656932ef12357cf3c7fdcc0260801c9161120f565b916ffff97272373d413259a46990580e213a0260801c91611206565b826345c3193d60e11b5f5260045260245ffdfe290decd9548b62a8d60345a988386fc84ba6bc95484008f6362f93160ef3e563a2646970667358221220e58cde8654452db33d54cdf080cd449c536f1d75bfccbd6298b447003c1ef45b64736f6c634300081a003300000000000000000000000000b036b58a818b1bc34d502d3fe730db729e62ac",
        "nonce": "0x14",
        "chainId": "0x515"
      },
      "additionalContracts": [],
      "isFixedGasLimit": false
    },
    {
      "hash": "0xe9bbf032384744e96c10f494586900169cd1bf4eb430ed98ad88234749eb83db",
      "transactionType": "CALL",
      "contractName": "PoolTestHelper",
      "contractAddress": "0x8d5af9050d765a1b67785ae4cec595360e2a29c7",
      "function": "initializePool((address,address,uint24,int24,address),uint160)",
      "arguments": [
        "(0x32cCA622f5Cd2b45a937C4E8536743C756187127, 0xE2AD3068aD183595152269a81eE72F44A176880c, 3000, 60, 0xb51F08EA987e1ca926e6730aeA5Dd5aeb5E7C0C4)",
        "79228162514264337593543950336"
      ],
      "transaction": {
        "from": "0x25f75573799a3aa37760d6be4b862aca70599b49",
        "to": "0x8d5af9050d765a1b67785ae4cec595360e2a29c7",
        "gas": "0x13dde",
        "value": "0x0",
        "input": "0xf702040500000000000000000000000032cca622f5cd2b45a937c4e8536743c756187127000000000000000000000000e2ad3068ad183595152269a81ee72f44a176880c0000000000000000000000000000000000000000000000000000000000000bb8000000000000000000000000000000000000000000000000000000000000003c000000000000000000000000b51f08ea987e1ca926e6730aea5dd5aeb5e7c0c40000000000000000000000000000000000000001000000000000000000000000",
        "nonce": "0x15",
        "chainId": "0x515"
      },
      "additionalContracts": [],
      "isFixedGasLimit": false
    },
    {
      "hash": "0x9ede9d6855d356ed5912f209cefa4ebeddd38770c18287c5b9b5c037620e5135",
      "transactionType": "CALL",
      "contractName": "TestERC20",
      "contractAddress": "0x32cca622f5cd2b45a937c4e8536743c756187127",
      "function": "approve(address,uint256)",
      "arguments": [
        "0x8D5Af9050D765a1B67785Ae4Cec595360E2A29c7",
        "115792089237316195423570985008687907853269984665640564039457584007913129639935"
      ],
      "transaction": {
        "from": "0x25f75573799a3aa37760d6be4b862aca70599b49",
        "to": "0x32cca622f5cd2b45a937c4e8536743c756187127",
        "gas": "0x10837",
        "value": "0x0",
        "input": "0x095ea7b30000000000000000000000008d5af9050d765a1b67785ae4cec595360e2a29c7ffffffffffffffffffffffffffffffffffffffffffffffffffffffffffffffff",
        "nonce": "0x16",
        "chainId": "0x515"
      },
      "additionalContracts": [],
      "isFixedGasLimit": false
    },
    {
      "hash": "0xf1c1ec016e882f1250e4586b6a2720edd41b0b3f7e571fb4905021e6e3dc452e",
      "transactionType": "CALL",
      "contractName": "TestERC20",
      "contractAddress": "0xe2ad3068ad183595152269a81ee72f44a176880c",
      "function": "approve(address,uint256)",
      "arguments": [
        "0x8D5Af9050D765a1B67785Ae4Cec595360E2A29c7",
        "115792089237316195423570985008687907853269984665640564039457584007913129639935"
      ],
      "transaction": {
        "from": "0x25f75573799a3aa37760d6be4b862aca70599b49",
        "to": "0xe2ad3068ad183595152269a81ee72f44a176880c",
        "gas": "0x10837",
        "value": "0x0",
        "input": "0x095ea7b30000000000000000000000008d5af9050d765a1b67785ae4cec595360e2a29c7ffffffffffffffffffffffffffffffffffffffffffffffffffffffffffffffff",
        "nonce": "0x17",
        "chainId": "0x515"
      },
      "additionalContracts": [],
      "isFixedGasLimit": false
    },
    {
      "hash": "0x6de49ae878b21fe79d52f1a9fac24e52b12d7a10035c46ac768ab7caab58675c",
      "transactionType": "CALL",
      "contractName": "TestERC20",
      "contractAddress": "0x32cca622f5cd2b45a937c4e8536743c756187127",
      "function": "approve(address,uint256)",
      "arguments": [
        "0x00B036B58a818B1BC34d502D3fE730Db729e62AC",
        "115792089237316195423570985008687907853269984665640564039457584007913129639935"
      ],
      "transaction": {
        "from": "0x25f75573799a3aa37760d6be4b862aca70599b49",
        "to": "0x32cca622f5cd2b45a937c4e8536743c756187127",
        "gas": "0xf977",
        "value": "0x0",
        "input": "0x095ea7b300000000000000000000000000b036b58a818b1bc34d502d3fe730db729e62acffffffffffffffffffffffffffffffffffffffffffffffffffffffffffffffff",
        "nonce": "0x18",
        "chainId": "0x515"
      },
      "additionalContracts": [],
      "isFixedGasLimit": false
    },
    {
      "hash": "0xc6172752ad57efab5095aa623da2b878d1c4416afc4eda2f7168d39dfa2ba7c0",
      "transactionType": "CALL",
      "contractName": "TestERC20",
      "contractAddress": "0xe2ad3068ad183595152269a81ee72f44a176880c",
      "function": "approve(address,uint256)",
      "arguments": [
        "0x00B036B58a818B1BC34d502D3fE730Db729e62AC",
        "115792089237316195423570985008687907853269984665640564039457584007913129639935"
      ],
      "transaction": {
        "from": "0x25f75573799a3aa37760d6be4b862aca70599b49",
        "to": "0xe2ad3068ad183595152269a81ee72f44a176880c",
        "gas": "0xf977",
        "value": "0x0",
        "input": "0x095ea7b300000000000000000000000000b036b58a818b1bc34d502d3fe730db729e62acffffffffffffffffffffffffffffffffffffffffffffffffffffffffffffffff",
        "nonce": "0x19",
        "chainId": "0x515"
      },
      "additionalContracts": [],
      "isFixedGasLimit": false
    },
    {
      "hash": "0xd62003b8a37303e5e7175613c7c91f0b713f201b0f5296cd3b0d9f3ed14ae41f",
      "transactionType": "CALL",
      "contractName": "PoolTestHelper",
      "contractAddress": "0x8d5af9050d765a1b67785ae4cec595360e2a29c7",
      "function": "addLiquidity((address,address,uint24,int24,address),int24,int24,uint256,uint256,address)",
      "arguments": [
        "(0x32cCA622f5Cd2b45a937C4E8536743C756187127, 0xE2AD3068aD183595152269a81eE72F44A176880c, 3000, 60, 0xb51F08EA987e1ca926e6730aeA5Dd5aeb5E7C0C4)",
        "-600",
        "600",
        "100000000000000000000000",
        "100000000000000000000000",
        "0x25f75573799A3Aa37760D6bE4b862acA70599b49"
      ],
      "transaction": {
        "from": "0x25f75573799a3aa37760d6be4b862aca70599b49",
        "to": "0x8d5af9050d765a1b67785ae4cec595360e2a29c7",
        "gas": "0xcdc02",
        "value": "0x0",
        "input": "0xf6d8477f00000000000000000000000032cca622f5cd2b45a937c4e8536743c756187127000000000000000000000000e2ad3068ad183595152269a81ee72f44a176880c0000000000000000000000000000000000000000000000000000000000000bb8000000000000000000000000000000000000000000000000000000000000003c000000000000000000000000b51f08ea987e1ca926e6730aea5dd5aeb5e7c0c4fffffffffffffffffffffffffffffffffffffffffffffffffffffffffffffda8000000000000000000000000000000000000000000000000000000000000025800000000000000000000000000000000000000000000152d02c7e14af680000000000000000000000000000000000000000000000000152d02c7e14af680000000000000000000000000000025f75573799a3aa37760d6be4b862aca70599b49",
        "nonce": "0x1a",
        "chainId": "0x515"
      },
      "additionalContracts": [],
      "isFixedGasLimit": false
    },
    {
      "hash": "0xc8cce95b605f1f9ac9a92622156a7e0e1788fc3a61bc1a3bd8026efcd2bca9d1",
      "transactionType": "CALL",
      "contractName": "PoolTestHelper",
      "contractAddress": "0x8d5af9050d765a1b67785ae4cec595360e2a29c7",
      "function": "swap((address,address,uint24,int24,address),bool,int256,uint160,bytes,address)",
      "arguments": [
        "(0x32cCA622f5Cd2b45a937C4E8536743C756187127, 0xE2AD3068aD183595152269a81eE72F44A176880c, 3000, 60, 0xb51F08EA987e1ca926e6730aeA5Dd5aeb5E7C0C4)",
        "true",
        "-1000000000000000000000",
        "4295128740",
        "0x000000000000000000000000000000000000000000000000000000000000008008e049757757573fac1ea7d07f303004dee7c63d5c5caa052a81b4bd9b162bec0000000000000000000000000000000000000000000000000000000000000160000000000000000000000000000000000000000000000000000000000000022000000000000000000000000000000000000000000000000000000000000000c0000102030405060708090a0b0c0d0e0f101112131415161718191a1b1c1d1e1f202122232425262728292a2b2c2d2e2f303132333435363738393a3b3c3d3e3f404142434445464748494a4b4c4d4e4f505152535455565758595a5b5c5d5e5f606162636465666768696a6b6c6d6e6f707172737475767778797a7b7c7d7e7f808182838485868788898a8b8c8d8e8f909192939495969798999a9b9c9d9e9fa0a1a2a3a4a5a6a7a8a9aaabacadaeafb0b1b2b3b4b5b6b7b8b9babbbcbdbebf000000000000000000000000000000000000000000000000000000000000000500000000000000000000000025f75573799a3aa37760d6be4b862aca70599b4900000000000000000000000011111111111111111111111111111111111111110000000000000000000000002222222222222222222222222222222222222222000000000000000000000000333333333333333333333333333333333333333300000000000000000000000044444444444444444444444444444444444444440000000000000000000000000000000000000000000000000000000000000042020102030405060708090a0b0c0d0e0f101112131415161718191a1b1c1d1e1f20030102030405060708090a0b0c0d0e0f101112131415161718191a1b1c1d1e1f20000000000000000000000000000000000000000000000000000000000000",
        "0x25f75573799A3Aa37760D6bE4b862acA70599b49"
      ],
      "transaction": {
        "from": "0x25f75573799a3aa37760d6be4b862aca70599b49",
        "to": "0x8d5af9050d765a1b67785ae4cec595360e2a29c7",
        "gas": "0x10d956",
        "value": "0x0",
        "input": "0xb49231b300000000000000000000000032cca622f5cd2b45a937c4e8536743c756187127000000000000000000000000e2ad3068ad183595152269a81ee72f44a176880c0000000000000000000000000000000000000000000000000000000000000bb8000000000000000000000000000000000000000000000000000000000000003c000000000000000000000000b51f08ea987e1ca926e6730aea5dd5aeb5e7c0c40000000000000000000000000000000000000000000000000000000000000001ffffffffffffffffffffffffffffffffffffffffffffffc9ca36523a2160000000000000000000000000000000000000000000000000000000000001000276a4000000000000000000000000000000000000000000000000000000000000014000000000000000000000000025f75573799a3aa37760d6be4b862aca70599b4900000000000000000000000000000000000000000000000000000000000002a0000000000000000000000000000000000000000000000000000000000000008008e049757757573fac1ea7d07f303004dee7c63d5c5caa052a81b4bd9b162bec0000000000000000000000000000000000000000000000000000000000000160000000000000000000000000000000000000000000000000000000000000022000000000000000000000000000000000000000000000000000000000000000c0000102030405060708090a0b0c0d0e0f101112131415161718191a1b1c1d1e1f202122232425262728292a2b2c2d2e2f303132333435363738393a3b3c3d3e3f404142434445464748494a4b4c4d4e4f505152535455565758595a5b5c5d5e5f606162636465666768696a6b6c6d6e6f707172737475767778797a7b7c7d7e7f808182838485868788898a8b8c8d8e8f909192939495969798999a9b9c9d9e9fa0a1a2a3a4a5a6a7a8a9aaabacadaeafb0b1b2b3b4b5b6b7b8b9babbbcbdbebf000000000000000000000000000000000000000000000000000000000000000500000000000000000000000025f75573799a3aa37760d6be4b862aca70599b4900000000000000000000000011111111111111111111111111111111111111110000000000000000000000002222222222222222222222222222222222222222000000000000000000000000333333333333333333333333333333333333333300000000000000000000000044444444444444444444444444444444444444440000000000000000000000000000000000000000000000000000000000000042020102030405060708090a0b0c0d0e0f101112131415161718191a1b1c1d1e1f20030102030405060708090a0b0c0d0e0f101112131415161718191a1b1c1d1e1f20000000000000000000000000000000000000000000000000000000000000",
        "nonce": "0x1b",
        "chainId": "0x515"
      },
      "additionalContracts": [],
      "isFixedGasLimit": false
    }
  ],
  "receipts": [
    {
      "status": "0x1",
      "cumulativeGasUsed": "0x7a49b",
      "logs": [],
      "logsBloom": "0x00000000000000000000000000000000000000000000000000000000000000000000000000000000000000000000000000000000000000000000000000000000000000000000000000000000000000000000000000000000000000000000000000000000000000000000000000000000000000000000000000000000000000000000000000000000000000000000000000000000000000000000000000000000000000000000000000000000000000000000000000000000000000000000000000000000000000000000000000000000000000000000000000000000000000000000000000000000000000000000000000000000000000000000000000000000",
      "type": "0x2",
      "transactionHash": "0xc81c868fc79cacf020c2317d43e22ddf63ff7669c91d4dafd38da6043235919f",
      "transactionIndex": "0x5",
      "blockHash": "0x62f2418dd0d0d25be39cd4050a1a188331071e3535cf78291d7f67255f4dae82",
      "blockNumber": "0x291db6a",
      "gasUsed": "0x24a33",
      "effectiveGasPrice": "0x7a121",
      "blobGasUsed": "0x20850",
      "from": "0x25f75573799a3aa37760d6be4b862aca70599b49",
      "to": null,
      "contractAddress": "0x83737d098a6cce2283bfac677f7177bcd5e13c7e",
      "daFootprintGasScalar": "0x190",
      "l1BaseFeeScalar": "0x7d0",
      "l1BlobBaseFee": "0x3a325fd",
      "l1BlobBaseFeeScalar": "0xdbba0",
      "l1Fee": "0x6e2f711ff",
      "l1GasPrice": "0x3f249958",
      "l1GasUsed": "0x14d0"
    },
    {
      "status": "0x1",
      "cumulativeGasUsed": "0x1968f7",
      "logs": [],
      "logsBloom": "0x00000000000000000000000000000000000000000000000000000000000000000000000000000000000000000000000000000000000000000000000000000000000000000000000000000000000000000000000000000000000000000000000000000000000000000000000000000000000000000000000000000000000000000000000000000000000000000000000000000000000000000000000000000000000000000000000000000000000000000000000000000000000000000000000000000000000000000000000000000000000000000000000000000000000000000000000000000000000000000000000000000000000000000000000000000000",
      "type": "0x2",
      "transactionHash": "0x4a20685936e19d16fe3f6fb57cadc4fe37bb719dde0650f8144558332f67a1ac",
      "transactionIndex": "0x6",
      "blockHash": "0x62f2418dd0d0d25be39cd4050a1a188331071e3535cf78291d7f67255f4dae82",
      "blockNumber": "0x291db6a",
      "gasUsed": "0x11c45c",
      "effectiveGasPrice": "0x7a121",
      "blobGasUsed": "0x143bb0",
      "from": "0x25f75573799a3aa37760d6be4b862aca70599b49",
      "to": "0x4e59b44847b379578588920ca78fbf26c0b4956c",
      "contractAddress": null,
      "daFootprintGasScalar": "0x190",
      "l1BaseFeeScalar": "0x7d0",
      "l1BlobBaseFee": "0x3a325fd",
      "l1BlobBaseFeeScalar": "0xdbba0",
      "l1Fee": "0x44932d8d62",
      "l1GasPrice": "0x3f249958",
      "l1GasUsed": "0xcf3f"
    },
    {
      "status": "0x1",
      "cumulativeGasUsed": "0x24430d",
      "logs": [],
      "logsBloom": "0x00000000000000000000000000000000000000000000000000000000000000000000000000000000000000000000000000000000000000000000000000000000000000000000000000000000000000000000000000000000000000000000000000000000000000000000000000000000000000000000000000000000000000000000000000000000000000000000000000000000000000000000000000000000000000000000000000000000000000000000000000000000000000000000000000000000000000000000000000000000000000000000000000000000000000000000000000000000000000000000000000000000000000000000000000000000",
      "type": "0x2",
      "transactionHash": "0xb8378243934e77f572489ca83b2f6c4fa0c615cbc67440fb9e7d123f40073958",
      "transactionIndex": "0x7",
      "blockHash": "0x62f2418dd0d0d25be39cd4050a1a188331071e3535cf78291d7f67255f4dae82",
      "blockNumber": "0x291db6a",
      "gasUsed": "0xada16",
      "effectiveGasPrice": "0x7a121",
      "blobGasUsed": "0xe33f0",
      "from": "0x25f75573799a3aa37760d6be4b862aca70599b49",
      "to": null,
      "contractAddress": "0xe2ad3068ad183595152269a81ee72f44a176880c",
      "daFootprintGasScalar": "0x190",
      "l1BaseFeeScalar": "0x7d0",
      "l1BlobBaseFee": "0x3a325fd",
      "l1BlobBaseFeeScalar": "0xdbba0",
      "l1Fee": "0x3020a173b4",
      "l1GasPrice": "0x3f249958",
      "l1GasUsed": "0x9173"
    },
    {
      "status": "0x1",
      "cumulativeGasUsed": "0x2f1d23",
      "logs": [],
      "logsBloom": "0x00000000000000000000000000000000000000000000000000000000000000000000000000000000000000000000000000000000000000000000000000000000000000000000000000000000000000000000000000000000000000000000000000000000000000000000000000000000000000000000000000000000000000000000000000000000000000000000000000000000000000000000000000000000000000000000000000000000000000000000000000000000000000000000000000000000000000000000000000000000000000000000000000000000000000000000000000000000000000000000000000000000000000000000000000000000",
      "type": "0x2",
      "transactionHash": "0xca972d39403b6a955c8723903ab8421c1d6a1c102d431ccbfa6e97ce58126e72",
      "transactionIndex": "0x8",
      "blockHash": "0x62f2418dd0d0d25be39cd4050a1a188331071e3535cf78291d7f67255f4dae82",
      "blockNumber": "0x291db6a",
      "gasUsed": "0xada16",
      "effectiveGasPrice": "0x7a121",
      "blobGasUsed": "0xe33f0",
      "from": "0x25f75573799a3aa37760d6be4b862aca70599b49",
      "to": null,
      "contractAddress": "0x32cca622f5cd2b45a937c4e8536743c756187127",
      "daFootprintGasScalar": "0x190",
      "l1BaseFeeScalar": "0x7d0",
      "l1BlobBaseFee": "0x3a325fd",
      "l1BlobBaseFeeScalar": "0xdbba0",
      "l1Fee": "0x3020a173b4",
      "l1GasPrice": "0x3f249958",
      "l1GasUsed": "0x9173"
    },
    {
      "status": "0x1",
      "cumulativeGasUsed": "0x5203c",
      "logs": [
        {
          "address": "0x32cca622f5cd2b45a937c4e8536743c756187127",
          "topics": [
            "0xddf252ad1be2c89b69c2b068fc378daa952ba7f163c4a11628f55a4df523b3ef",
            "0x0000000000000000000000000000000000000000000000000000000000000000",
            "0x00000000000000000000000025f75573799a3aa37760d6be4b862aca70599b49"
          ],
          "data": "0x00000000000000000000000000000000000000000000d3c21bcecceda1000000",
          "blockHash": "0x0000000000000000000000000000000000000000000000000000000000000000",
          "blockNumber": "0x291db6b",
          "blockTimestamp": "0x697f88b7",
          "transactionHash": "0xe9bbf032384744e96c10f494586900169cd1bf4eb430ed98ad88234749eb83db",
          "transactionIndex": "0x4",
          "logIndex": "0x2",
          "removed": false
        }
      ],
      "logsBloom": "0x00000000000000000000000000000000000000004000000000000000000000000000000000000000000000000000000000000000000000000000000000000000000000000000000000000008000000000000000000000000000000000000000000000020020000000000000000000800000000000000000000000010000000000000000000000000000000000400000000000000000000000000000000000000000000000000000000000000000000010000800000000000000000000000000000000002000000000000000000000000000000000000000000000000000020000000000000000000000000000000000000000000001000000000000000000000",
      "type": "0x2",
      "transactionHash": "0xe9bbf032384744e96c10f494586900169cd1bf4eb430ed98ad88234749eb83db",
      "transactionIndex": "0x4",
      "blockHash": "0x0000000000000000000000000000000000000000000000000000000000000000",
      "blockNumber": "0x291db6b",
      "gasUsed": "0x10a2e",
      "effectiveGasPrice": "0x7a121",
      "blobGasUsed": "0x9c40",
      "from": "0x25f75573799a3aa37760d6be4b862aca70599b49",
      "to": "0x32cca622f5cd2b45a937c4e8536743c756187127",
      "contractAddress": null,
      "daFootprintGasScalar": "0x190",
      "l1BaseFeeScalar": "0x7d0",
      "l1BlobBaseFee": "0x3b84651",
      "l1BlobBaseFeeScalar": "0xdbba0",
      "l1Fee": "0x2cc747bfb",
      "l1GasPrice": "0x39814e07",
      "l1GasUsed": "0x640"
    },
    {
      "status": "0x1",
      "cumulativeGasUsed": "0x62a6a",
      "logs": [
        {
          "address": "0xe2ad3068ad183595152269a81ee72f44a176880c",
          "topics": [
            "0xddf252ad1be2c89b69c2b068fc378daa952ba7f163c4a11628f55a4df523b3ef",
            "0x0000000000000000000000000000000000000000000000000000000000000000",
            "0x00000000000000000000000025f75573799a3aa37760d6be4b862aca70599b49"
          ],
          "data": "0x00000000000000000000000000000000000000000000d3c21bcecceda1000000",
          "blockHash": "0x0000000000000000000000000000000000000000000000000000000000000000",
          "blockNumber": "0x291db6b",
          "blockTimestamp": "0x697f88b7",
          "transactionHash": "0x359a75b1a42be8311e213a48fc9e0a6c2e31316a1e1c2fbb562530efe76e98e6",
          "transactionIndex": "0x5",
          "logIndex": "0x3",
          "removed": false
        }
      ],
      "logsBloom": "0x00000000000000000000000000000000000000004000000000000000000000000000000000000000000000000000000000000000000000000000000000000000000000000000000000000008000000000000000000000000000000000000000000000000020000000000000000000800000000000000000000008010000000000000000000000000000000008400000000000000000000000000000000000000000000000000000000000000000000010000000000000000000000000000000000000002000000000000000000000000000000000000000000000000000020000000000000000000000000000000004000000000000000000000000000000000",
      "type": "0x2",
      "transactionHash": "0x359a75b1a42be8311e213a48fc9e0a6c2e31316a1e1c2fbb562530efe76e98e6",
      "transactionIndex": "0x5",
      "blockHash": "0x0000000000000000000000000000000000000000000000000000000000000000",
      "blockNumber": "0x291db6b",
      "gasUsed": "0x10a2e",
      "effectiveGasPrice": "0x7a121",
      "blobGasUsed": "0x9c40",
      "from": "0x25f75573799a3aa37760d6be4b862aca70599b49",
      "to": "0xe2ad3068ad183595152269a81ee72f44a176880c",
      "contractAddress": null,
      "daFootprintGasScalar": "0x190",
      "l1BaseFeeScalar": "0x7d0",
      "l1BlobBaseFee": "0x3b84651",
      "l1BlobBaseFeeScalar": "0xdbba0",
      "l1Fee": "0x2cc747bfb",
      "l1GasPrice": "0x39814e07",
      "l1GasUsed": "0x640"
    },
    {
      "status": "0x1",
      "cumulativeGasUsed": "0x18f275",
      "logs": [],
      "logsBloom": "0x00000000000000000000000000000000000000000000000000000000000000000000000000000000000000000000000000000000000000000000000000000000000000000000000000000000000000000000000000000000000000000000000000000000000000000000000000000000000000000000000000000000000000000000000000000000000000000000000000000000000000000000000000000000000000000000000000000000000000000000000000000000000000000000000000000000000000000000000000000000000000000000000000000000000000000000000000000000000000000000000000000000000000000000000000000000",
      "type": "0x2",
      "transactionHash": "0xc8cce95b605f1f9ac9a92622156a7e0e1788fc3a61bc1a3bd8026efcd2bca9d1",
      "transactionIndex": "0x6",
      "blockHash": "0x5b2ba6632e6e5818edcc97baea8dc667a671b8d4beab27cccefccdc2ef76b0eb",
      "blockNumber": "0x291db6b",
      "gasUsed": "0x12c80b",
      "effectiveGasPrice": "0x7a121",
      "blobGasUsed": "0x149330",
      "from": "0x25f75573799a3aa37760d6be4b862aca70599b49",
      "to": null,
      "contractAddress": "0x8d5af9050d765a1b67785ae4cec595360e2a29c7",
      "daFootprintGasScalar": "0x190",
      "l1BaseFeeScalar": "0x7d0",
      "l1BlobBaseFee": "0x3b84651",
      "l1BlobBaseFeeScalar": "0xdbba0",
      "l1Fee": "0x4451a5b327",
      "l1GasPrice": "0x39814e07",
      "l1GasUsed": "0xd2b2"
    },
    {
      "status": "0x1",
      "cumulativeGasUsed": "0x19cbce",
      "logs": [
        {
          "address": "0x00b036b58a818b1bc34d502d3fe730db729e62ac",
          "topics": [
            "0xdd466e674ea557f56295e2d0218a125ea4b4f0f6f3307b95f85e6110838d6438",
            "0x5159d2cead1c6a0636a61028080cc5ea69e2aa7512283773ac724bbed0cd4011",
            "0x00000000000000000000000032cca622f5cd2b45a937c4e8536743c756187127",
            "0x000000000000000000000000e2ad3068ad183595152269a81ee72f44a176880c"
          ],
          "data": "0x0000000000000000000000000000000000000000000000000000000000000bb8000000000000000000000000000000000000000000000000000000000000003c000000000000000000000000b51f08ea987e1ca926e6730aea5dd5aeb5e7c0c400000000000000000000000000000000000000010000000000000000000000000000000000000000000000000000000000000000000000000000000000000000",
          "blockHash": "0x5b2ba6632e6e5818edcc97baea8dc667a671b8d4beab27cccefccdc2ef76b0eb",
          "blockNumber": "0x291db6b",
          "blockTimestamp": "0x697f88b7",
          "transactionHash": "0xd62003b8a37303e5e7175613c7c91f0b713f201b0f5296cd3b0d9f3ed14ae41f",
          "transactionIndex": "0x7",
          "logIndex": "0x4",
          "removed": false
        }
      ],
      "logsBloom": "0x00000000000000000000000000000000000000000000000000000000000000000000000000000000000000000000000000000000000000000000000000000080000000000000000000000000000000000000000000000000000000000000000000000000000000000000000100000000000020000000000020000000000000000000000000000008000000011008000000000001000020000000000000200000000000000000000000000000000000000000000000000100000000000000000000002000000000000000000000000000000000000000000000000000000000000000000000000000000000000000000000000000000002000000000000000010",
      "type": "0x2",
      "transactionHash": "0xd62003b8a37303e5e7175613c7c91f0b713f201b0f5296cd3b0d9f3ed14ae41f",
      "transactionIndex": "0x7",
      "blockHash": "0x5b2ba6632e6e5818edcc97baea8dc667a671b8d4beab27cccefccdc2ef76b0eb",
      "blockNumber": "0x291db6b",
      "gasUsed": "0xd959",
      "effectiveGasPrice": "0x7a121",
      "blobGasUsed": "0xdac0",
      "from": "0x25f75573799a3aa37760d6be4b862aca70599b49",
      "to": "0x8d5af9050d765a1b67785ae4cec595360e2a29c7",
      "contractAddress": null,
      "daFootprintGasScalar": "0x190",
      "l1BaseFeeScalar": "0x7d0",
      "l1BlobBaseFee": "0x3b84651",
      "l1BlobBaseFeeScalar": "0xdbba0",
      "l1Fee": "0x2d9796c86",
      "l1GasPrice": "0x39814e07",
      "l1GasUsed": "0x8c9"
    },
    {
      "status": "0x1",
      "cumulativeGasUsed": "0x1a8077",
      "logs": [
        {
          "address": "0x32cca622f5cd2b45a937c4e8536743c756187127",
          "topics": [
            "0x8c5be1e5ebec7d5bd14f71427d1e84f3dd0314c0f7b2291e5b200ac8c7c3b925",
            "0x00000000000000000000000025f75573799a3aa37760d6be4b862aca70599b49",
            "0x0000000000000000000000008d5af9050d765a1b67785ae4cec595360e2a29c7"
          ],
          "data": "0xffffffffffffffffffffffffffffffffffffffffffffffffffffffffffffffff",
          "blockHash": "0x0000000000000000000000000000000000000000000000000000000000000000",
          "blockNumber": "0x291db6b",
          "blockTimestamp": "0x697f88b7",
          "transactionHash": "0xf1c1ec016e882f1250e4586b6a2720edd41b0b3f7e571fb4905021e6e3dc452e",
          "transactionIndex": "0x8",
          "logIndex": "0x5",
          "removed": false
        }
      ],
      "logsBloom": "0x00000000000040000000000000000000000000004000000000000000000000000000000000000000000000000000000000000000000000000000000000200000000000000000000000000000000000000000040000000000000000000000000000000020000000000000000000000000000000000000000000000000000000010000000000000000000000000400000000000000000000000000000000000000020000000000000000000000000000010000800000000000000000000000000000000000000000000000000000000000000000000000000000000000000000000010000000000000000000000000000000000000001000000000000000000000",
      "type": "0x2",
      "transactionHash": "0xf1c1ec016e882f1250e4586b6a2720edd41b0b3f7e571fb4905021e6e3dc452e",
      "transactionIndex": "0x8",
      "blockHash": "0x0000000000000000000000000000000000000000000000000000000000000000",
      "blockNumber": "0x291db6b",
      "gasUsed": "0xb4a9",
      "effectiveGasPrice": "0x7a121",
      "blobGasUsed": "0x9c40",
      "from": "0x25f75573799a3aa37760d6be4b862aca70599b49",
      "to": "0x32cca622f5cd2b45a937c4e8536743c756187127",
      "contractAddress": null,
      "daFootprintGasScalar": "0x190",
      "l1BaseFeeScalar": "0x7d0",
      "l1BlobBaseFee": "0x3b84651",
      "l1BlobBaseFeeScalar": "0xdbba0",
      "l1Fee": "0x2cc747bfb",
      "l1GasPrice": "0x39814e07",
      "l1GasUsed": "0x640"
    },
    {
      "status": "0x1",
      "cumulativeGasUsed": "0x1b3520",
      "logs": [
        {
          "address": "0xe2ad3068ad183595152269a81ee72f44a176880c",
          "topics": [
            "0x8c5be1e5ebec7d5bd14f71427d1e84f3dd0314c0f7b2291e5b200ac8c7c3b925",
            "0x00000000000000000000000025f75573799a3aa37760d6be4b862aca70599b49",
            "0x0000000000000000000000008d5af9050d765a1b67785ae4cec595360e2a29c7"
          ],
          "data": "0xffffffffffffffffffffffffffffffffffffffffffffffffffffffffffffffff",
          "blockHash": "0x0000000000000000000000000000000000000000000000000000000000000000",
          "blockNumber": "0x291db6b",
          "blockTimestamp": "0x697f88b7",
          "transactionHash": "0xd98431fa6de7f4ebac42d803307281dc7ffbda1a1d18d6c6ad482783a6e83e1c",
          "transactionIndex": "0x9",
          "logIndex": "0x6",
          "removed": false
        }
      ],
      "logsBloom": "0x00000000000040000000000000000000000000004000000000000000000000000000000000000000000000000000000000000000000000000000000000200000000000000000000000000000000000000000040000000000000000000000000000000000000000000000000000000000000000000000000000008000000000010000000000000000000000008400000000000000000000000000000000000000020000000000000000000000000000010000000000000000000000000000000000000000000000000000000000000000000000000000000000000000000000000010000000000000000000000000004000000000000000000000000000000000",
      "type": "0x2",
      "transactionHash": "0xd98431fa6de7f4ebac42d803307281dc7ffbda1a1d18d6c6ad482783a6e83e1c",
      "transactionIndex": "0x9",
      "blockHash": "0x0000000000000000000000000000000000000000000000000000000000000000",
      "blockNumber": "0x291db6b",
      "gasUsed": "0xb4a9",
      "effectiveGasPrice": "0x7a121",
      "blobGasUsed": "0x9c40",
      "from": "0x25f75573799a3aa37760d6be4b862aca70599b49",
      "to": "0xe2ad3068ad183595152269a81ee72f44a176880c",
      "contractAddress": null,
      "daFootprintGasScalar": "0x190",
      "l1BaseFeeScalar": "0x7d0",
      "l1BlobBaseFee": "0x3b84651",
      "l1BlobBaseFeeScalar": "0xdbba0",
      "l1Fee": "0x2cc747bfb",
      "l1GasPrice": "0x39814e07",
      "l1GasUsed": "0x640"
    },
    {
      "status": "0x1",
      "cumulativeGasUsed": "0x1be9bd",
      "logs": [
        {
          "address": "0x32cca622f5cd2b45a937c4e8536743c756187127",
          "topics": [
            "0x8c5be1e5ebec7d5bd14f71427d1e84f3dd0314c0f7b2291e5b200ac8c7c3b925",
            "0x00000000000000000000000025f75573799a3aa37760d6be4b862aca70599b49",
            "0x00000000000000000000000000b036b58a818b1bc34d502d3fe730db729e62ac"
          ],
          "data": "0xffffffffffffffffffffffffffffffffffffffffffffffffffffffffffffffff",
          "blockHash": "0x5b2ba6632e6e5818edcc97baea8dc667a671b8d4beab27cccefccdc2ef76b0eb",
          "blockNumber": "0x291db6b",
          "blockTimestamp": "0x697f88b7",
          "transactionHash": "0x6de49ae878b21fe79d52f1a9fac24e52b12d7a10035c46ac768ab7caab58675c",
          "transactionIndex": "0xa",
          "logIndex": "0x7",
          "removed": false
        }
      ],
      "logsBloom": "0x00000000000000000000000000000000000000004000000000000000000000000000000000000000000000000000000000000000001000000000000000200000000000000000000000000000000000000000000000000000000000000000000000000020000000000000000000004000000000000000000000000000000000000000000000000000000000000400000000000000000000000000000000000000020000000000000000000000000000010000800000000020000000000000000000000000000000000000000000000000000000000000000000000000000000000010000000000000000000000000000000000000001000000000000000000000",
      "type": "0x2",
      "transactionHash": "0x6de49ae878b21fe79d52f1a9fac24e52b12d7a10035c46ac768ab7caab58675c",
      "transactionIndex": "0xa",
      "blockHash": "0x5b2ba6632e6e5818edcc97baea8dc667a671b8d4beab27cccefccdc2ef76b0eb",
      "blockNumber": "0x291db6b",
      "gasUsed": "0xb49d",
      "effectiveGasPrice": "0x7a121",
      "blobGasUsed": "0x9c40",
      "from": "0x25f75573799a3aa37760d6be4b862aca70599b49",
      "to": "0x32cca622f5cd2b45a937c4e8536743c756187127",
      "contractAddress": null,
      "daFootprintGasScalar": "0x190",
      "l1BaseFeeScalar": "0x7d0",
      "l1BlobBaseFee": "0x3b84651",
      "l1BlobBaseFeeScalar": "0xdbba0",
      "l1Fee": "0x206cce55d",
      "l1GasPrice": "0x39814e07",
      "l1GasUsed": "0x640"
    },
    {
      "status": "0x1",
      "cumulativeGasUsed": "0x1c9e5a",
      "logs": [
        {
          "address": "0xe2ad3068ad183595152269a81ee72f44a176880c",
          "topics": [
            "0x8c5be1e5ebec7d5bd14f71427d1e84f3dd0314c0f7b2291e5b200ac8c7c3b925",
            "0x00000000000000000000000025f75573799a3aa37760d6be4b862aca70599b49",
            "0x00000000000000000000000000b036b58a818b1bc34d502d3fe730db729e62ac"
          ],
          "data": "0xffffffffffffffffffffffffffffffffffffffffffffffffffffffffffffffff",
          "blockHash": "0x0000000000000000000000000000000000000000000000000000000000000000",
          "blockNumber": "0x291db6b",
          "blockTimestamp": "0x697f88b7",
          "transactionHash": "0x9ede9d6855d356ed5912f209cefa4ebeddd38770c18287c5b9b5c037620e5135",
          "transactionIndex": "0xb",
          "logIndex": "0x8",
          "removed": false
        }
      ],
      "logsBloom": "0x00000000000000000000000000000000000000004000000000000000000000000000000000000000000000000000000000000000001000000000000000200000000000000000000000000000000000000000000000000000000000000000000000000000000000000000000000004000000000000000000000008000000000000000000000000000000000008400000000000000000000000000000000000000020000000000000000000000000000010000000000000020000000000000000000000000000000000000000000000000000000000000000000000000000000000010000000000000000000000000004000000000000000000000000000000000",
      "type": "0x2",
      "transactionHash": "0x9ede9d6855d356ed5912f209cefa4ebeddd38770c18287c5b9b5c037620e5135",
      "transactionIndex": "0xb",
      "blockHash": "0x0000000000000000000000000000000000000000000000000000000000000000",
      "blockNumber": "0x291db6b",
      "gasUsed": "0xb49d",
      "effectiveGasPrice": "0x7a121",
      "blobGasUsed": "0x9c40",
      "from": "0x25f75573799a3aa37760d6be4b862aca70599b49",
      "to": "0xe2ad3068ad183595152269a81ee72f44a176880c",
      "contractAddress": null,
      "daFootprintGasScalar": "0x190",
      "l1BaseFeeScalar": "0x7d0",
      "l1BlobBaseFee": "0x3b84651",
      "l1BlobBaseFeeScalar": "0xdbba0",
      "l1Fee": "0x2cc747bfb",
      "l1GasPrice": "0x39814e07",
      "l1GasUsed": "0x640"
    },
    {
      "status": "0x1",
      "cumulativeGasUsed": "0x25694d",
      "logs": [
        {
          "address": "0x00b036b58a818b1bc34d502d3fe730db729e62ac",
          "topics": [
            "0xf208f4912782fd25c7f114ca3723a2d5dd6f3bcc3ac8db5af63baa85f711d5ec",
            "0x5159d2cead1c6a0636a61028080cc5ea69e2aa7512283773ac724bbed0cd4011",
            "0x0000000000000000000000008d5af9050d765a1b67785ae4cec595360e2a29c7"
          ],
          "data": "0xfffffffffffffffffffffffffffffffffffffffffffffffffffffffffffffda8000000000000000000000000000000000000000000000000000000000000025800000000000000000000000000000000000000000000148ccdbd47b107f0956d0000000000000000000000000000000000000000000000000000000000000000",
          "blockHash": "0x5b2ba6632e6e5818edcc97baea8dc667a671b8d4beab27cccefccdc2ef76b0eb",
          "blockNumber": "0x291db6b",
          "blockTimestamp": "0x697f88b7",
          "transactionHash": "0xc6172752ad57efab5095aa623da2b878d1c4416afc4eda2f7168d39dfa2ba7c0",
          "transactionIndex": "0xc",
          "logIndex": "0x9",
          "removed": false
        },
        {
          "address": "0x32cca622f5cd2b45a937c4e8536743c756187127",
          "topics": [
            "0xddf252ad1be2c89b69c2b068fc378daa952ba7f163c4a11628f55a4df523b3ef",
            "0x00000000000000000000000025f75573799a3aa37760d6be4b862aca70599b49",
            "0x00000000000000000000000000b036b58a818b1bc34d502d3fe730db729e62ac"
          ],
          "data": "0x00000000000000000000000000000000000000000000009b78fb883a06093efd",
          "blockHash": "0x5b2ba6632e6e5818edcc97baea8dc667a671b8d4beab27cccefccdc2ef76b0eb",
          "blockNumber": "0x291db6b",
          "blockTimestamp": "0x697f88b7",
          "transactionHash": "0xc6172752ad57efab5095aa623da2b878d1c4416afc4eda2f7168d39dfa2ba7c0",
          "transactionIndex": "0xc",
          "logIndex": "0xa",
          "removed": false
        },
        {
          "address": "0xe2ad3068ad183595152269a81ee72f44a176880c",
          "topics": [
            "0xddf252ad1be2c89b69c2b068fc378daa952ba7f163c4a11628f55a4df523b3ef",
            "0x00000000000000000000000025f75573799a3aa37760d6be4b862aca70599b49",
            "0x00000000000000000000000000b036b58a818b1bc34d502d3fe730db729e62ac"
          ],
          "data": "0x00000000000000000000000000000000000000000000009b78fb883a06093efd",
          "blockHash": "0x5b2ba6632e6e5818edcc97baea8dc667a671b8d4beab27cccefccdc2ef76b0eb",
          "blockNumber": "0x291db6b",
          "blockTimestamp": "0x697f88b7",
          "transactionHash": "0xc6172752ad57efab5095aa623da2b878d1c4416afc4eda2f7168d39dfa2ba7c0",
          "transactionIndex": "0xc",
          "logIndex": "0xb",
          "removed": false
        }
      ],
      "logsBloom": "0x00000000000040000000000000000000000000004000000000000000000000000000000000000000000000000000000000000000001000000000000000000000000000000000000000000008000000000000040000000000000000000000000000000020000000000000000100004000000000000000000000008010000000010000000001000000000000009408000000000000000000000000000000000000000004000000000000000000000000010000800000000120000000000000000000000002000000000000000000000000000000000000000000000000000000000000000000000000000000000000004004000000001002000000000000000010",
      "type": "0x2",
      "transactionHash": "0xc6172752ad57efab5095aa623da2b878d1c4416afc4eda2f7168d39dfa2ba7c0",
      "transactionIndex": "0xc",
      "blockHash": "0x5b2ba6632e6e5818edcc97baea8dc667a671b8d4beab27cccefccdc2ef76b0eb",
      "blockNumber": "0x291db6b",
      "gasUsed": "0x8caf3",
      "effectiveGasPrice": "0x7a121",
      "blobGasUsed": "0x11300",
      "from": "0x25f75573799a3aa37760d6be4b862aca70599b49",
      "to": "0x8d5af9050d765a1b67785ae4cec595360e2a29c7",
      "contractAddress": null,
      "daFootprintGasScalar": "0x190",
      "l1BaseFeeScalar": "0x7d0",
      "l1BlobBaseFee": "0x3b84651",
      "l1BlobBaseFeeScalar": "0xdbba0",
      "l1Fee": "0x394158efc",
      "l1GasPrice": "0x39814e07",
      "l1GasUsed": "0xb09"
    },
    {
      "status": "0x1",
      "cumulativeGasUsed": "0x319c15",
      "logs": [
        {
          "address": "0xb51f08ea987e1ca926e6730aea5dd5aeb5e7c0c4",
          "topics": [
            "0x5ad91a98fc7012ec1c9fe068f799b8462d2310026eb08d54897744151d84aa9c",
            "0x5159d2cead1c6a0636a61028080cc5ea69e2aa7512283773ac724bbed0cd4011",
            "0x08e049757757573fac1ea7d07f303004dee7c63d5c5caa052a81b4bd9b162bec"
          ],
          "data": "0x000000000000000000000000000000000000000000000000000000000000000500000000000000000000000000000000000000000000000000000000697f88b7",
          "blockHash": "0x0000000000000000000000000000000000000000000000000000000000000000",
          "blockNumber": "0x291db6b",
          "blockTimestamp": "0x697f88b7",
          "transactionHash": "0x8004c0d0d1e20269b6c2c0697413649be692cb54969625d1f952a632eff89a82",
          "transactionIndex": "0xd",
          "logIndex": "0xc",
          "removed": false
        },
        {
          "address": "0x00b036b58a818b1bc34d502d3fe730db729e62ac",
          "topics": [
            "0x40e9cecb9f5f1f1c5b9c97dec2917b7ee92e57ba5563708daca94dd84ad7112f",
            "0x5159d2cead1c6a0636a61028080cc5ea69e2aa7512283773ac724bbed0cd4011",
            "0x0000000000000000000000008d5af9050d765a1b67785ae4cec595360e2a29c7"
          ],
          "data": "0xffffffffffffffffffffffffffffffffffffffffffffffc9ca36523a216000000000000000000000000000000000000000000000000000357f73deda343a7de10000000000000000000000000000000000000000fd658e19d9402784e309cc9e00000000000000000000000000000000000000000000148ccdbd47b107f0956dffffffffffffffffffffffffffffffffffffffffffffffffffffffffffffff330000000000000000000000000000000000000000000000000000000000000bb8",
          "blockHash": "0x0000000000000000000000000000000000000000000000000000000000000000",
          "blockNumber": "0x291db6b",
          "blockTimestamp": "0x697f88b7",
          "transactionHash": "0x8004c0d0d1e20269b6c2c0697413649be692cb54969625d1f952a632eff89a82",
          "transactionIndex": "0xd",
          "logIndex": "0xd",
          "removed": false
        },
        {
          "address": "0x42013a72753f6ec28e27582d4cdb8425b44fd311",
          "topics": [
            "0x5f0eab8057630ba7676c49b4f21a0231414e79474595be8e4c432fbf6bf0f4e7",
            "0x0000000000000000000000000000000000000000000000000000000000000001",
            "0x000000000000000000000000c9f941e912aaf22213d64688332a117661014493",
            "0x000000000000000000000000b51f08ea987e1ca926e6730aea5dd5aeb5e7c0c4"
          ],
          "data": "0x000000000000000000000000000000000000000000000000000000000000004000000000000000000000000000000000000000000000000000000000000000a0000000000000000000000000000000000000000000000000000000000000002102f487326cf9fd9fb69e2ab0a09397bda7e1592d33a90cb3ba54e226e8245e11b500000000000000000000000000000000000000000000000000000000000000000000000000000000000000000000000000000000000000000000000000003534e2ad3068ad183595152269a81ee72f44a176880c0000000000000000000000000000000000000000000000357f73deda343a7de10000000000000000000000",
          "blockHash": "0x0000000000000000000000000000000000000000000000000000000000000000",
          "blockNumber": "0x291db6b",
          "blockTimestamp": "0x697f88b7",
          "transactionHash": "0x8004c0d0d1e20269b6c2c0697413649be692cb54969625d1f952a632eff89a82",
          "transactionIndex": "0xd",
          "logIndex": "0xe",
          "removed": false
        },
        {
          "address": "0xb51f08ea987e1ca926e6730aea5dd5aeb5e7c0c4",
          "topics": [
            "0xf92035e199ab8751a785b4e109e89a0a3c45c3ce73779cb8ce30a6902a87a182",
            "0x5159d2cead1c6a0636a61028080cc5ea69e2aa7512283773ac724bbed0cd4011",
            "0x000000000000000000000000c9f941e912aaf22213d64688332a117661014493"
          ],
          "data": "0x000000000000000000000000e2ad3068ad183595152269a81ee72f44a176880c0000000000000000000000000000000000000000000000357f73deda343a7de100000000000000000000000000000000000000000000000000000000697f88b7",
          "blockHash": "0x0000000000000000000000000000000000000000000000000000000000000000",
          "blockNumber": "0x291db6b",
          "blockTimestamp": "0x697f88b7",
          "transactionHash": "0x8004c0d0d1e20269b6c2c0697413649be692cb54969625d1f952a632eff89a82",
          "transactionIndex": "0xd",
          "logIndex": "0xf",
          "removed": false
        },
        {
          "address": "0x32cca622f5cd2b45a937c4e8536743c756187127",
          "topics": [
            "0xddf252ad1be2c89b69c2b068fc378daa952ba7f163c4a11628f55a4df523b3ef",
            "0x00000000000000000000000025f75573799a3aa37760d6be4b862aca70599b49",
            "0x00000000000000000000000000b036b58a818b1bc34d502d3fe730db729e62ac"
          ],
          "data": "0x00000000000000000000000000000000000000000000003635c9adc5dea00000",
          "blockHash": "0x0000000000000000000000000000000000000000000000000000000000000000",
          "blockNumber": "0x291db6b",
          "blockTimestamp": "0x697f88b7",
          "transactionHash": "0x8004c0d0d1e20269b6c2c0697413649be692cb54969625d1f952a632eff89a82",
          "transactionIndex": "0xd",
          "logIndex": "0x10",
          "removed": false
        },
        {
          "address": "0xe2ad3068ad183595152269a81ee72f44a176880c",
          "topics": [
            "0xddf252ad1be2c89b69c2b068fc378daa952ba7f163c4a11628f55a4df523b3ef",
            "0x00000000000000000000000000b036b58a818b1bc34d502d3fe730db729e62ac",
            "0x00000000000000000000000025f75573799a3aa37760d6be4b862aca70599b49"
          ],
          "data": "0x0000000000000000000000000000000000000000000000357f73deda343a7de1",
          "blockHash": "0x0000000000000000000000000000000000000000000000000000000000000000",
          "blockNumber": "0x291db6b",
          "blockTimestamp": "0x697f88b7",
          "transactionHash": "0x8004c0d0d1e20269b6c2c0697413649be692cb54969625d1f952a632eff89a82",
          "transactionIndex": "0xd",
          "logIndex": "0x11",
          "removed": false
        }
      ],
      "logsBloom": "0x00000020000040000000000000000000000000004000000000400000000000000000000000000000000000000002000000000000041000000000020000040020000100000000000000000008100008000000040000044020000000000200000000000820000000400000000100004000000000000000000000008010000000010000000002020000000000009408000000000000000000000100000000200000000000000000000008000000400000010000800000000120000000000004000000000003000000000000200000000000000200000000000004000000400040000000000000000000004000000000004000000000001002000000000000000010",
      "type": "0x2",
      "transactionHash": "0x8004c0d0d1e20269b6c2c0697413649be692cb54969625d1f952a632eff89a82",
      "transactionIndex": "0xd",
      "blockHash": "0x0000000000000000000000000000000000000000000000000000000000000000",
      "blockNumber": "0x291db6b",
      "gasUsed": "0xc32c8",
      "effectiveGasPrice": "0x7a121",
      "blobGasUsed": "0x2db40",
      "from": "0x25f75573799a3aa37760d6be4b862aca70599b49",
      "to": "0x8d5af9050d765a1b67785ae4cec595360e2a29c7",
      "contractAddress": null,
      "daFootprintGasScalar": "0x190",
      "l1BaseFeeScalar": "0x7d0",
      "l1BlobBaseFee": "0x3b84651",
      "l1BlobBaseFeeScalar": "0xdbba0",
      "l1Fee": "0x2cc747bfb",
      "l1GasPrice": "0x39814e07",
      "l1GasUsed": "0x1d48"
    }
  ],
  "libraries": [],
  "pending": [],
  "returns": {},
  "timestamp": 1769965751105,
  "chain": 1301,
  "commit": "3438cd9"
}