{
  "transactions": [
    {
      "hash": "0x66ec0146721a7db2c01a4944e056c51919581b4b0c14d2d311a42a1826f48ff7",
      "transactionType": "CALL",
      "contractName": null,
      "contractAddress": "0x00b036b58a818b1bc34d502d3fe730db729e62ac",
      "function": "initialize((address,address,uint24,int24,address),uint160)",
      "arguments": [
        "(0x0000000000000000000000000000000000000000, 0x31d0220469e10c4E71834a79b1f276d740d3768F, 3000, 60, 0xeB72E2495640a4B83EBfc4618FD91cc9beB640c4)",
        "3543191142285914205922034"
      ],
      "transaction": {
        "from": "0x25f75573799a3aa37760d6be4b862aca70599b49",
        "to": "0x00b036b58a818b1bc34d502d3fe730db729e62ac",
        "gas": "0x1134c",
        "value": "0x0",
        "input": "0x6276cbbe000000000000000000000000000000000000000000000000000000000000000000000000000000000000000031d0220469e10c4e71834a79b1f276d740d3768f0000000000000000000000000000000000000000000000000000000000000bb8000000000000000000000000000000000000000000000000000000000000003c000000000000000000000000eb72e2495640a4b83ebfc4618fd91cc9beb640c400000000000000000000000000000000000000000002ee4cc6d5cdcef8c522f2",
        "nonce": "0xb6",
        "chainId": "0x515"
      },
      "additionalContracts": [],
      "isFixedGasLimit": false
    },
    {
      "hash": "0xe79a9f591b73704b497dfd51f10c9519c1c0a4b6c53e3d93350a8d11e098386a",
      "transactionType": "CREATE",
      "contractName": "PoolTestHelper",
      "contractAddress": "0x307db11ea06bb07d7e41cedf6542f70f8d159cb6",
      "function": null,
      "arguments": [
        "0x00B036B58a818B1BC34d502D3fE730Db729e62AC"
      ],
      "transaction": {
        "from": "0x25f75573799a3aa37760d6be4b862aca70599b49",
        "gas": "0x1a45ea",
        "value": "0x0",
        "input": "0x60a034608f57601f61179e38819003918201601f19168301916001600160401b03831184841017609357808492602094604052833981010312608f57516001600160a01b0381168103608f576080526040516116f690816100a8823960805181818160ae0152818161026b015281816103ea015281816107ff015281816110fa015281816111c201526112360152f35b5f80fd5b634e487b7160e01b5f52604160045260245ffdfe6080604052600436101561001a575b3615610018575f80fd5b005b5f3560e01c806391dd734614610628578063b49231b314610419578063dc4c90d3146103d5578063f6d8477f1461013c5763f70204050361000e57346101255760c03660031901126101255761006f36610714565b60a4356001600160a01b038116908190036101255760405163313b65df60e11b8152916100a0906004840190610e87565b60a482015260208160c4815f7f00000000000000000000000000000000000000000000000000000000000000006001600160a01b03165af18015610131575f906100f3575b6020906040519060020b8152f35b506020813d602011610129575b8161010d602093836106dc565b8101031261012557610120602091611007565b6100e5565b5f80fd5b3d9150610100565b6040513d5f823e3d90fd5b6101403660031901126101255761015236610714565b60a435908160020b8092036101255760c435908160020b809203610125576101ec926101fa926101806106fd565b91610192604051946020860190610e87565b60c084015260e083015260e435610100830152610104356101208301526001600160a01b03166101408083019190915281526101d0610160826106dc565b6040519283915f6020840152604080840152606083019061069d565b03601f1981018352826106dc565b80516001600160401b0381116103c1576102145f54610eca565b601f811161035a575b50602091601f82116001146102f1579181925f926102e6575b50508160011b915f199060031b1c1916175f555b6040516348c8949160e01b81525f818061026660048201610f6d565b0381837f00000000000000000000000000000000000000000000000000000000000000006001600160a01b03165af1908115610131575f916102c4575b50602081519181808201938492010103126101255760209051604051908152f35b6102e091503d805f833e6102d881836106dc565b810190610f48565b816102a3565b015190508280610236565b601f198216925f80525f805160206116a1833981519152915f5b8581106103425750836001951061032a575b505050811b015f5561024a565b01515f1960f88460031b161c1916905582808061031d565b9192602060018192868501518155019401920161030b565b5f8052601f820160051c5f805160206116a18339815191520190602083106103ac575b601f0160051c5f805160206116a183398151915201905b8181106103a1575061021d565b5f8155600101610394565b5f805160206116a1833981519152915061037d565b634e487b7160e01b5f52604160045260245ffd5b34610125575f366003190112610125576040517f00000000000000000000000000000000000000000000000000000000000000006001600160a01b03168152602090f35b34610125576101403660031901126101255761043436610714565b60a4358015158091036101255760e4356001600160a01b038116908190036101255761010435906001600160401b038211610125576101ec93610507936104ca6104ea936104896104a39636906004016107b6565b906104926106fd565b936040519788966020880190610e87565b60c086015260c43560e086015261010085015261014061012085015261016084019061069d565b6001600160a01b039190911661014083015203601f1981018352826106dc565b60405192839160016020840152604080840152606083019061069d565b80516001600160401b0381116103c1576105215f54610eca565b601f81116105c1575b50602091601f8211600114610571579181925f926102e65750508160011b915f199060031b1c1916175f556040516348c8949160e01b81525f818061026660048201610f6d565b601f198216925f80525f805160206116a1833981519152915f5b8581106105a95750836001951061032a57505050811b015f5561024a565b9192602060018192868501518155019401920161058b565b5f8052601f820160051c5f805160206116a1833981519152019060208310610613575b601f0160051c5f805160206116a183398151915201905b818110610608575061052a565b5f81556001016105fb565b5f805160206116a183398151915291506105e4565b34610125576020366003190112610125576004356001600160401b0381116101255736602382011215610125578060040135906001600160401b0382116101255736602483830101116101255761069991602461068592016107fc565b60405191829160208352602083019061069d565b0390f35b805180835260209291819084018484015e5f828201840152601f01601f1916010190565b60a081019081106001600160401b038211176103c157604052565b90601f801991011681019081106001600160401b038211176103c157604052565b61012435906001600160a01b038216820361012557565b60a0906003190112610125576040519061072d826106c1565b816004356001600160a01b03811681036101255781526024356001600160a01b038116810361012557602082015260443562ffffff811681036101255760408201526064358060020b8103610125576060820152608435906001600160a01b03821682036101255760800152565b6001600160401b0381116103c157601f01601f191660200190565b81601f82011215610125578035906107cd8261079b565b926107db60405194856106dc565b8284526020838301011161012557815f926020809301838601378301015290565b907f00000000000000000000000000000000000000000000000000000000000000006001600160a01b03169033829003610e4f578201916040818403126101255780359260028410156101255760208201356001600160401b0381116101255761086692016107b6565b9180610b00575090805181016101408282031261012557602061088d910160208301611029565b9061089a60c08201611007565b926108a760e08301611007565b61010083015161012084015193610909906001600160a01b03906108ce9061014001611015565b16946108f66108dc89611373565b936108e686611373565b946001600160a01b0316906110e4565b60601c926001600160a01b0316906110e4565b60601c80821015610af85750945b6001600160801b038611610ae9575b604051608081018181106001600160401b038211176103c157604094610164935f92875260020b8352602083019460020b85526001600160801b0386840199168952606083018281528651998a968795632d35e7ed60e11b875261098d600488018d610e87565b5160020b60a48701525160020b60c48601525160e485015251610104840152610140610124840152816101448401525af1928315610131575f93610ab5575b508260801d9083600f0b9180600f0b5f81125f14610a825750610a0c90826109fd60018060a01b03875116926110b0565b6001600160801b031691611186565b5f821215610a49576109fd610a2e93602060018060a01b0391015116926110b0565b60405190602082015260208152610a466040826106dc565b90565b905f12610a58575b5050610a2e565b602090910151610a7b916001600160801b038416916001600160a01b03166110f7565b5f80610a51565b5f12610a8f575b50610a0c565b8351610aaf916001600160801b03169083906001600160a01b03166110f7565b5f610a89565b9092506040813d604011610ae1575b81610ad1604093836106dc565b810103126101255751915f6109cc565b3d9150610ac4565b6001600160801b039550610926565b905094610917565b600114610b3d5760405162461bcd60e51b815260206004820152600e60248201526d2ab735b737bbb71030b1ba34b7b760911b6044820152606490fd5b81518201610140836020830192031261012557610b5d8160208501611029565b91610b6a60c085016110a3565b60e085015161010086015190956001600160a01b03821694909185900361012557610120820151906001600160401b038211610125576020610bae92840101610f02565b906001600160a01b0390610bc59061014001611015565b169260405160608101918183106001600160401b038411176103c15760209260405284159687158352838301998a5260408301908152604051998a93633cf3645360e21b8552610c18600486018c610e87565b51151560a48501525160c4840152516001600160a01b031660e4830152610120610104830152815f81610c4f61012482018861069d565b03925af1958615610131575f96610e1b575b5060808501515f916001600160a01b03909116908115159081610e10575b50610d9f575b508560801d9386600f0b9480600f0b5f81125f14610d4557508651610cba92506001600160a01b03169085906109fd906110b0565b5f841215610cde5750506109fd610a2e93602060018060a01b0391015116926110b0565b919093925f12610cf2575b50505050610a2e565b610d229380610d33575b15610d2b5750905b602001516001600160801b03841691906001600160a01b03166110f7565b5f808080610ce9565b905090610d04565b506001600160a01b0382161515610cfc565b5f12610d53575b5050610cba565b610d809180610d8d575b15610d8757825b87516001600160801b03909216916001600160a01b03166110f7565b5f80610d4c565b84610d64565b506001600160a01b0383161515610d5d565b60205f9160246040518094819363492a2cf960e11b83523060048401525af15f9181610dd4575b5015610c855790505f610c85565b9091506020813d602011610e08575b81610df0602093836106dc565b8101031261012557610e0190611015565b905f610dc6565b3d9150610de3565b90505115155f610c7f565b9095506020813d602011610e47575b81610e37602093836106dc565b810103126101255751945f610c61565b3d9150610e2a565b60405162461bcd60e51b815260206004820152601060248201526f27b7363c902837b7b626b0b730b3b2b960811b6044820152606490fd5b80516001600160a01b03908116835260208083015182169084015260408083015162ffffff169084015260608083015160020b9084015260809182015116910152565b90600182811c92168015610ef8575b6020831014610ee457565b634e487b7160e01b5f52602260045260245ffd5b91607f1691610ed9565b81601f8201121561012557805190610f198261079b565b92610f2760405194856106dc565b8284526020838301011161012557815f9260208093018386015e8301015290565b906020828203126101255781516001600160401b03811161012557610a469201610f02565b602081525f905f5490610f7f82610eca565b918260208301526001811690815f14610fdd5750600114610f9f57505090565b5f8080529192505f805160206116a18339815191525b838310610fc6575060409250010190565b805460408484010152602090920191600101610fb5565b90506040935060ff929192191683830152151560051b010190565b90816020910312610125575190565b51908160020b820361012557565b51906001600160a01b038216820361012557565b91908260a091031261012557604051611041816106c1565b809261104c81611015565b825261105a60208201611015565b602083015260408101519062ffffff8216820361012557608091604084015261108560608201611007565b60608401520151906001600160a01b03821682036101255760800152565b5190811515820361012557565b600f0b6f7fffffffffffffffffffffffffffffff1981146110d0575f0390565b634e487b7160e01b5f52601160045260245ffd5b818102929181159184041417156110d057565b907f00000000000000000000000000000000000000000000000000000000000000006001600160a01b0316803b1561012557604051630b0d9c0960e01b81526001600160a01b0393841660048201529190921660248201526001600160801b039290921660448301525f908290606490829084905af180156101315761117a5750565b5f611184916106dc565b565b9192915f916001600160a01b039091169081611232575050604051630476982d60e21b81529192602090839060049082906001600160801b03167f00000000000000000000000000000000000000000000000000000000000000006001600160a01b03165af190811561122657506111fb5750565b61121c9060203d60201161121f575b61121481836106dc565b810190610ff8565b50565b503d61120a565b604051903d90823e3d90fd5b90937f00000000000000000000000000000000000000000000000000000000000000006001600160a01b031691823b1561012557604051632961046560e21b815260048101879052955f8760248183885af1968715610131576001600160801b0397611355575b506020929185606492604051998a9586946323b872dd60e01b865260018060a01b031660048601528860248601521660448401525af193841561134a57829394611306575b50602090600460405180958193630476982d60e21b83525af190811561122657506111fb5750565b9091506020813d602011611342575b81611322602093836106dc565b8101031261133e5782916113376020926110a3565b50906112de565b8280fd5b3d9150611315565b6040513d84823e3d90fd5b6064919550916113685f602095946106dc565b5f9591509192611299565b60020b908160ff1d82810118620d89e8811161168d5763ffffffff9192600182167001fffcb933bd6fad37aa2d162d1a59400102600160801b189160028116611671575b60048116611655575b60088116611639575b6010811661161d575b60208116611601575b604081166115e5575b608081166115c9575b61010081166115ad575b6102008116611591575b6104008116611575575b6108008116611559575b611000811661153d575b6120008116611521575b6140008116611505575b61800081166114e9575b6201000081166114cd575b6202000081166114b2575b620400008116611497575b620800001661147e575b5f12611476575b0160201c90565b5f190461146f565b6b048a170391f7dc42444e8fa290910260801c90611468565b6d2216e584f5fa1ea926041bedfe9890920260801c9161145e565b916e5d6af8dedb81196699c329225ee6040260801c91611453565b916f09aa508b5b7a84e1c677de54f3e99bc90260801c91611448565b916f31be135f97d08fd981231505542fcfa60260801c9161143d565b916f70d869a156d2a1b890bb3df62baf32f70260801c91611433565b916fa9f746462d870fdf8a65dc1f90e061e50260801c91611429565b916fd097f3bdfd2022b8845ad8f792aa58250260801c9161141f565b916fe7159475a2c29b7443b29c7fa6e889d90260801c91611415565b916ff3392b0822b70005940c7a398e4b70f30260801c9161140b565b916ff987a7253ac413176f2b074cf7815e540260801c91611401565b916ffcbe86c7900a88aedcffc83b479aa3a40260801c916113f7565b916ffe5dee046a99a2a811c461f1969c30530260801c916113ed565b916fff2ea16466c96a3843ec78b326b528610260801c916113e4565b916fff973b41fa98c081472e6896dfb254c00260801c916113db565b916fffcb9843d60f6159c9db58835c9266440260801c916113d2565b916fffe5caca7e10e4e61c3624eaa0941cd00260801c916113c9565b916ffff2e50f5f656932ef12357cf3c7fdcc0260801c916113c0565b916ffff97272373d413259a46990580e213a0260801c916113b7565b826345c3193d60e11b5f5260045260245ffdfe290decd9548b62a8d60345a988386fc84ba6bc95484008f6362f93160ef3e563a26469706673582212207c224970aef44de9b1000aec00874337804dd92870916eb7d56f9230cbb80b8264736f6c634300081a003300000000000000000000000000b036b58a818b1bc34d502d3fe730db729e62ac",
        "nonce": "0xb7",
        "chainId": "0x515"
      },
      "additionalContracts": [],
      "isFixedGasLimit": false
    },
    {
      "hash": "0xb739ff7254f439db821a0f7d2c2fe82e40d6cc1697e7a3bb6e5f802529ae2fa6",
      "transactionType": "CALL",
      "contractName": null,
      "contractAddress": "0x31d0220469e10c4e71834a79b1f276d740d3768f",
      "function": "approve(address,uint256)",
      "arguments": [
        "0x307DB11Ea06BB07D7E41cEDf6542F70F8D159cB6",
        "20000000"
      ],
      "transaction": {
        "from": "0x25f75573799a3aa37760d6be4b862aca70599b49",
        "to": "0x31d0220469e10c4e71834a79b1f276d740d3768f",
        "gas": "0x12b1b",
        "value": "0x0",
        "input": "0x095ea7b3000000000000000000000000307db11ea06bb07d7e41cedf6542f70f8d159cb60000000000000000000000000000000000000000000000000000000001312d00",
        "nonce": "0xb8",
        "chainId": "0x515"
      },
      "additionalContracts": [],
      "isFixedGasLimit": false
    },
    {
      "hash": "0x3c5c3b903dff842c0967b80874c98332817483fdda8f1a4d398d6d8a1e055889",
      "transactionType": "CALL",
      "contractName": "PoolTestHelper",
      "contractAddress": "0x307db11ea06bb07d7e41cedf6542f70f8d159cb6",
      "function": "addLiquidity((address,address,uint24,int24,address),int24,int24,uint256,uint256,address)",
      "arguments": [
        "(0x0000000000000000000000000000000000000000, 0x31d0220469e10c4E71834a79b1f276d740d3768F, 3000, 60, 0xeB72E2495640a4B83EBfc4618FD91cc9beB640c4)",
        "-276000",
        "-180000",
        "10000000000000000",
        "20000000",
        "0x25f75573799A3Aa37760D6bE4b862acA70599b49"
      ],
      "transaction": {
        "from": "0x25f75573799a3aa37760d6be4b862aca70599b49",
        "to": "0x307db11ea06bb07d7e41cedf6542f70f8d159cb6",
        "gas": "0xb140d",
        "value": "0x2386f26fc10000",
        "input": "0xf6d8477f000000000000000000000000000000000000000000000000000000000000000000000000000000000000000031d0220469e10c4e71834a79b1f276d740d3768f0000000000000000000000000000000000000000000000000000000000000bb8000000000000000000000000000000000000000000000000000000000000003c000000000000000000000000eb72e2495640a4b83ebfc4618fd91cc9beb640c4fffffffffffffffffffffffffffffffffffffffffffffffffffffffffffbc9e0fffffffffffffffffffffffffffffffffffffffffffffffffffffffffffd40e0000000000000000000000000000000000000000000000000002386f26fc100000000000000000000000000000000000000000000000000000000000001312d0000000000000000000000000025f75573799a3aa37760d6be4b862aca70599b49",
        "nonce": "0xb9",
        "chainId": "0x515"
      },
      "additionalContracts": [],
      "isFixedGasLimit": false
    }
  ],
  "receipts": [
    {
      "status": "0x1",
      "cumulativeGasUsed": "0x34178",
      "logs": [
        {
          "address": "0x00b036b58a818b1bc34d502d3fe730db729e62ac",
          "topics": [
            "0xdd466e674ea557f56295e2d0218a125ea4b4f0f6f3307b95f85e6110838d6438",
            "0x992fbd6ccd504a037f3bf5f5c777ac3db58903506f8fed3ac0123f910c772321",
            "0x0000000000000000000000000000000000000000000000000000000000000000",
            "0x00000000000000000000000031d0220469e10c4e71834a79b1f276d740d3768f"
          ],
          "data": "0x0000000000000000000000000000000000000000000000000000000000000bb8000000000000000000000000000000000000000000000000000000000000003c000000000000000000000000eb72e2495640a4b83ebfc4618fd91cc9beb640c400000000000000000000000000000000000000000002ee4cc6d5cdcef8c522f2fffffffffffffffffffffffffffffffffffffffffffffffffffffffffffcf188",
          "blockHash": "0xbb9ed806c9e49ed433b867d48e954c522887e690976085c21395c34c9800a1d4",
          "blockNumber": "0x296d546",
          "blockTimestamp": "0x69848292",
          "transactionHash": "0x66ec0146721a7db2c01a4944e056c51919581b4b0c14d2d311a42a1826f48ff7",
          "transactionIndex": "0x3",
          "logIndex": "0x1",
          "removed": false
        }
      ],
      "logsBloom": "0x00000000000000000000000000000000000000000000000000000000000000000000000000000080000000000000000000000000000000000000000000000000000000000000000000000000000000000000000000000000000000000000000000000000020000000000000000000800000000000000000000000000000000000000000000000008000000000008000000000001000000000000000000200000000000000000000000000000000000000000000000000000000000000000000000000000000000008000000000000000000000000400004000000000000020000000000000001000000000000000000000000000000002000080000000000010",
      "type": "0x2",
      "transactionHash": "0x66ec0146721a7db2c01a4944e056c51919581b4b0c14d2d311a42a1826f48ff7",
      "transactionIndex": "0x3",
      "blockHash": "0xbb9ed806c9e49ed433b867d48e954c522887e690976085c21395c34c9800a1d4",
      "blockNumber": "0x296d546",
      "gasUsed": "0xc750",
      "effectiveGasPrice": "0x7a121",
      "blobGasUsed": "0xc030",
      "from": "0x25f75573799a3aa37760d6be4b862aca70599b49",
      "to": "0x00b036b58a818b1bc34d502d3fe730db729e62ac",
      "contractAddress": null,
      "daFootprintGasScalar": "0x190",
      "l1BaseFeeScalar": "0x7d0",
      "l1BlobBaseFee": "0x3bb59d8",
      "l1BlobBaseFeeScalar": "0xdbba0",
      "l1Fee": "0x286d0f1c2",
      "l1GasPrice": "0x3a35f65c",
      "l1GasUsed": "0x7be"
    },
    {
      "status": "0x1",
      "cumulativeGasUsed": "0x177740",
      "logs": [],
      "logsBloom": "0x00000000000000000000000000000000000000000000000000000000000000000000000000000000000000000000000000000000000000000000000000000000000000000000000000000000000000000000000000000000000000000000000000000000000000000000000000000000000000000000000000000000000000000000000000000000000000000000000000000000000000000000000000000000000000000000000000000000000000000000000000000000000000000000000000000000000000000000000000000000000000000000000000000000000000000000000000000000000000000000000000000000000000000000000000000000",
      "type": "0x2",
      "transactionHash": "0xb739ff7254f439db821a0f7d2c2fe82e40d6cc1697e7a3bb6e5f802529ae2fa6",
      "transactionIndex": "0x4",
      "blockHash": "0xbb9ed806c9e49ed433b867d48e954c522887e690976085c21395c34c9800a1d4",
      "blockNumber": "0x296d546",
      "gasUsed": "0x1435c8",
      "effectiveGasPrice": "0x7a121",
      "blobGasUsed": "0x1667f0",
      "from": "0x25f75573799a3aa37760d6be4b862aca70599b49",
      "to": null,
      "contractAddress": "0x307db11ea06bb07d7e41cedf6542f70f8d159cb6",
      "daFootprintGasScalar": "0x190",
      "l1BaseFeeScalar": "0x7d0",
      "l1BlobBaseFee": "0x3bb59d8",
      "l1BlobBaseFeeScalar": "0xdbba0",
      "l1Fee": "0x4ae23d7389",
      "l1GasPrice": "0x3a35f65c",
      "l1GasUsed": "0xe577"
    },
    {
      "status": "0x1",
      "cumulativeGasUsed": "0x184fcd",
      "logs": [
        {
          "address": "0x31d0220469e10c4e71834a79b1f276d740d3768f",
          "topics": [
            "0x8c5be1e5ebec7d5bd14f71427d1e84f3dd0314c0f7b2291e5b200ac8c7c3b925",
            "0x00000000000000000000000025f75573799a3aa37760d6be4b862aca70599b49",
            "0x000000000000000000000000307db11ea06bb07d7e41cedf6542f70f8d159cb6"
          ],
          "data": "0x0000000000000000000000000000000000000000000000000000000001312d00",
          "blockHash": "0xbb9ed806c9e49ed433b867d48e954c522887e690976085c21395c34c9800a1d4",
          "blockNumber": "0x296d546",
          "blockTimestamp": "0x69848292",
          "transactionHash": "0xe79a9f591b73704b497dfd51f10c9519c1c0a4b6c53e3d93350a8d11e098386a",
          "transactionIndex": "0x5",
          "logIndex": "0x2",
          "removed": false
        }
      ],
      "logsBloom": "0x00000000000000000000000000000000000000004000000000000000000100000000000000000000000000000000000000000000000000000000000000200000000000000000000000000000000000000000000000001000000000000000000000000000000000000000000000000000000000000000000000000000000000000000000000000000000000000400000000000000000000000000000000000000020000000001000080000000000000012000000000000000000000000000000000000000000000000000000000000000000000000000000000000000000000000010000000000000000000000000000000000000000000000020000000000000",
      "type": "0x2",
      "transactionHash": "0xe79a9f591b73704b497dfd51f10c9519c1c0a4b6c53e3d93350a8d11e098386a",
      "transactionIndex": "0x5",
      "blockHash": "0xbb9ed806c9e49ed433b867d48e954c522887e690976085c21395c34c9800a1d4",
      "blockNumber": "0x296d546",
      "gasUsed": "0xd88d",
      "effectiveGasPrice": "0x7a121",
      "blobGasUsed": "0x9c40",
      "from": "0x25f75573799a3aa37760d6be4b862aca70599b49",
      "to": "0x31d0220469e10c4e71834a79b1f276d740d3768f",
      "contractAddress": null,
      "daFootprintGasScalar": "0x190",
      "l1BaseFeeScalar": "0x7d0",
      "l1BlobBaseFee": "0x3bb59d8",
      "l1BlobBaseFeeScalar": "0xdbba0",
      "l1Fee": "0x20a23dd7c",
      "l1GasPrice": "0x3a35f65c",
      "l1GasUsed": "0x640"
    },
    {
      "status": "0x1",
      "cumulativeGasUsed": "0x2c8ff3",
      "logs": [
        {
          "address": "0x00b036b58a818b1bc34d502d3fe730db729e62ac",
          "topics": [
            "0xf208f4912782fd25c7f114ca3723a2d5dd6f3bcc3ac8db5af63baa85f711d5ec",
            "0x992fbd6ccd504a037f3bf5f5c777ac3db58903506f8fed3ac0123f910c772321",
            "0x000000000000000000000000307db11ea06bb07d7e41cedf6542f70f8d159cb6"
          ],
          "data": "0xfffffffffffffffffffffffffffffffffffffffffffffffffffffffffffbc9e0fffffffffffffffffffffffffffffffffffffffffffffffffffffffffffd40e000000000000000000000000000000000000000000000000000000000000009a50000000000000000000000000000000000000000000000000000000000000000",
          "blockHash": "0xbb9ed806c9e49ed433b867d48e954c522887e690976085c21395c34c9800a1d4",
          "blockNumber": "0x296d546",
          "blockTimestamp": "0x69848292",
          "transactionHash": "0x3c5c3b903dff842c0967b80874c98332817483fdda8f1a4d398d6d8a1e055889",
          "transactionIndex": "0xa",
          "logIndex": "0xd",
          "removed": false
        },
        {
          "address": "0x31d0220469e10c4e71834a79b1f276d740d3768f",
          "topics": [
            "0xddf252ad1be2c89b69c2b068fc378daa952ba7f163c4a11628f55a4df523b3ef",
            "0x00000000000000000000000025f75573799a3aa37760d6be4b862aca70599b49",
            "0x00000000000000000000000000b036b58a818b1bc34d502d3fe730db729e62ac"
          ],
          "data": "0x0000000000000000000000000000000000000000000000000000000000000001",
          "blockHash": "0xbb9ed806c9e49ed433b867d48e954c522887e690976085c21395c34c9800a1d4",
          "blockNumber": "0x296d546",
          "blockTimestamp": "0x69848292",
          "transactionHash": "0x3c5c3b903dff842c0967b80874c98332817483fdda8f1a4d398d6d8a1e055889",
          "transactionIndex": "0xa",
          "logIndex": "0xe",
          "removed": false
        }
      ],
      "logsBloom": "0x000000000000000000000000000000000000000040000000000000000001000000000000000000000000000000000000000000000010000000000000000000000000000000000000000000080000000000000000000010000000000000000000000000000000000000000000000040000000000000000000000000100000000000000000010000000000000004080000000000000000000000000000000000000000040000010000800000000000000120000000000000200000000000000000000000020000000000000000000000000000000004000040000000000000000000000000000000000000000000000000040000000000020000a0000000000010",
      "type": "0x2",
      "transactionHash": "0x3c5c3b903dff842c0967b80874c98332817483fdda8f1a4d398d6d8a1e055889",
      "transactionIndex": "0xa",
      "blockHash": "0xbb9ed806c9e49ed433b867d48e954c522887e690976085c21395c34c9800a1d4",
      "blockNumber": "0x296d546",
      "gasUsed": "0x80540",
      "effectiveGasPrice": "0x7a121",
      "blobGasUsed": "0xfb90",
      "from": "0x25f75573799a3aa37760d6be4b862aca70599b49",
      "to": "0x307db11ea06bb07d7e41cedf6542f70f8d159cb6",
      "contractAddress": null,
      "daFootprintGasScalar": "0x190",
      "l1BaseFeeScalar": "0x7d0",
      "l1BlobBaseFee": "0x3bb59d8",
      "l1BlobBaseFeeScalar": "0xdbba0",
      "l1Fee": "0x34b5cdeda",
      "l1GasPrice": "0x3a35f65c",
      "l1GasUsed": "0xa18"
    }
  ],
  "libraries": [],
  "pending": [],
  "returns": {},
  "timestamp": 1770291859079,
  "chain": 1301,
  "commit": "3d44038"
}