{
  "transactions": [
    {
      "hash": "0x079e58a6831527209fd93da151e3731f3843e908e339a9b121a2df6e11d6fe74",
      "transactionType": "CREATE",
      "contractName": "DirectLiquidityAdder",
      "contractAddress": "0x3173e11d89e0154acd727466c810f58d86e991d4",
      "function": null,
      "arguments": [
        "0x00B036B58a818B1BC34d502D3fE730Db729e62AC"
      ],
      "transaction": {
        "from": "0x25f75573799a3aa37760d6be4b862aca70599b49",
        "value": "0x0",
        "input": "0x60a034607257601f610bf438819003918201601f19168301916001600160401b03831184841017607657808492602094604052833981010312607257516001600160a01b0381168103607257608052604051610b69908161008b8239608051818181605b0152818160df01526107d60152f35b5f80fd5b634e487b7160e01b5f52604160045260245ffdfe6080604052600436101561001a575b3615610018575f80fd5b005b5f803560e01c806309c93b1e1461064357806391dd73461461008d5763dc4c90d314610046575061000e565b3461008a578060031936011261008a576040517f00000000000000000000000000000000000000000000000000000000000000006001600160a01b03168152602090f35b80fd5b50346105c85760203660031901126105c8576004359067ffffffffffffffff82116105c857366023830112156105c857816004013567ffffffffffffffff81116105c85782013660248201116105c8577f00000000000000000000000000000000000000000000000000000000000000006001600160a01b0316903382900361061457610120848203126105c85760a090849003126105c85760405190610133826109f5565b61013f60248501610a33565b825261014d60448501610a33565b60208301908152606485013562ffffff811681036105c857604084015261017660848601610a47565b606084015260a48501356001600160a01b03811681036105c85760808401526101a160c48601610a47565b926101ae60e48701610a47565b6101248701356001600160a01b03811697908890036105c857604051956080870187811067ffffffffffffffff8211176106005760405260020b8652602086019160020b825261010460408701910135815260608601915f835260405196632d35e7ed60e11b88526102236004890186610a55565b5160020b60a48801525160020b60c48701525160e4860152516101048501526101406101248501525f610144850152604084610164815f875af19384156105bd575f946105cc575b508360801d9584600f0b9187600f0b5f81125f14610538575050600460206001600160801b0361029b899a610ad0565b1660405192838092630476982d60e21b8252895af1801561046657610519575b505b858212156104755782516001600160a01b0316843b156104715760405190632961046560e21b82526004820152868160248183895af1908115610466578791610449575b50602092916064916103256001600160801b039660018060a01b0390511694610ad0565b9360405196879586946323b872dd60e01b865260048601528960248601521660448401525af1801561043e576103fc575b50602090600460405180958193630476982d60e21b83525af19182156103f1576040926103c2575b505b81519060208201908152602082526103988383610a11565b8251938492602084525180928160208601528585015e828201840152601f01601f19168101030190f35b6103e39060203d6020116103ea575b6103db8183610a11565b810190610b04565b505f61037e565b503d6103d1565b6040513d85823e3d90fd5b6020813d602011610436575b8161041560209383610a11565b8101031261043157519081151582036104315790506020610356565b505050fd5b3d9150610408565b6040513d86823e3d90fd5b8161045691949394610a11565b6104625790855f610301565b8580fd5b6040513d89823e3d90fd5b8680fd5b9190948094951361048d575b50505050604090610380565b516001600160a01b0316823b1561051557604051630b0d9c0960e01b81526001600160a01b039182166004820152911660248201526001600160801b03841660448201529082908290606490829084905af1801561050a576104f1575b8080610481565b816104fb91610a11565b61050657815f6104ea565b5080fd5b6040513d84823e3d90fd5b8380fd5b6105319060203d6020116103ea576103db8183610a11565b505f6102bb565b5f12610548575b508596506102bd565b516001600160a01b031696843b156105c857604051630b0d9c0960e01b81526001600160a01b03988916600482015297821660248901526001600160801b031660448801525f8760648183885af180156105bd576105a7575b8661053f565b9450945f6105b491610a11565b5f9385906105a1565b6040513d5f823e3d90fd5b5f80fd5b9093506040813d6040116105f8575b816105e860409383610a11565b810103126105c85751925f61026b565b3d91506105db565b634e487b7160e01b5f52604160045260245ffd5b60405162461bcd60e51b81526020600482015260076024820152664f6e6c7920504d60c81b6044820152606490fd5b366003190161012081126105c85760a0136105c857604051610664816109f5565b6004356001600160a01b03811681036105c85781526024356001600160a01b03811681036105c857602082015260443562ffffff811681036105c85760408201526064358060020b81036105c85760608201526084356001600160a01b03811681036105c857608082015260a4358060020b8091036105c85760c4358060020b8091036105c857610104356001600160a01b03811692908390036105c857610713604051946020860190610a55565b60c084015260e083015260e435610100830152610120820152610120815261073d61014082610a11565b805167ffffffffffffffff8111610600576107585f54610a98565b601f811161098e575b50602091601f8211600114610925579181925f9261091a575b50508160011b915f199060031b1c1916175f555b6040516348c8949160e01b8152602060048201525f805482906107b081610a98565b908160248401526001811690815f146108f957506001146108b4575b505f9181900381837f00000000000000000000000000000000000000000000000000000000000000006001600160a01b03165af19081156105bd575f9161082a575b506020818051810103126105c857602080910151604051908152f35b90503d805f833e61083b8183610a11565b8101906020818303126105c85780519067ffffffffffffffff82116105c8570181601f820112156105c85780519067ffffffffffffffff82116106005760405192610890601f8401601f191660200185610a11565b828452602083830101116105c857815f9260208093018386015e830101528161080e565b5f8080529192505f80516020610b148339815191525b8183106108df575050810160440190806107cc565b8054604484870101528493506020909201916001016108ca565b5f94506044915091839260ff191682840152151560051b82010192506107cc565b01519050828061077a565b601f198216925f80525f80516020610b14833981519152915f5b8581106109765750836001951061095e575b505050811b015f5561078e565b01515f1960f88460031b161c19169055828080610951565b9192602060018192868501518155019401920161093f565b5f8052601f820160051c5f80516020610b148339815191520190602083106109e0575b601f0160051c5f80516020610b1483398151915201905b8181106109d55750610761565b5f81556001016109c8565b5f80516020610b1483398151915291506109b1565b60a0810190811067ffffffffffffffff82111761060057604052565b90601f8019910116810190811067ffffffffffffffff82111761060057604052565b35906001600160a01b03821682036105c857565b35908160020b82036105c857565b80516001600160a01b03908116835260208083015182169084015260408083015162ffffff169084015260608083015160020b9084015260809182015116910152565b90600182811c92168015610ac6575b6020831014610ab257565b634e487b7160e01b5f52602260045260245ffd5b91607f1691610aa7565b600f0b6f7fffffffffffffffffffffffffffffff198114610af0575f0390565b634e487b7160e01b5f52601160045260245ffd5b908160209103126105c857519056fe290decd9548b62a8d60345a988386fc84ba6bc95484008f6362f93160ef3e563a2646970667358221220f7d1e0aba02173aaab827c97493dab22a305adb0759bf0cb8c73ade52d3afe0264736f6c634300081a003300000000000000000000000000b036b58a818b1bc34d502d3fe730db729e62ac",
        "nonce": "0xd9",
        "chainId": "0x515"
      },
      "additionalContracts": [],
      "isFixedGasLimit": false
    },
    {
      "hash": "0x788ff35bbc79ecd57172328218d757035154c7fd752f05ed7545f16a03045187",
      "transactionType": "CALL",
      "contractName": null,
      "contractAddress": "0x31d0220469e10c4e71834a79b1f276d740d3768f",
      "function": "approve(address,uint256)",
      "arguments": [
        "0x3173e11d89E0154acd727466c810F58D86e991D4",
        "300000000"
      ],
      "transaction": {
        "from": "0x25f75573799a3aa37760d6be4b862aca70599b49",
        "to": "0x31d0220469e10c4e71834a79b1f276d740d3768f",
        "value": "0x0",
        "input": "0x095ea7b30000000000000000000000003173e11d89e0154acd727466c810f58d86e991d40000000000000000000000000000000000000000000000000000000011e1a300",
        "nonce": "0xda",
        "chainId": "0x515"
      },
      "additionalContracts": [],
      "isFixedGasLimit": false
    },
    {
      "hash": "0x754d36ef59b07e8bff9e9c09c7589b8b98e029f3d6dd4057bbdf61219e21adbe",
      "transactionType": "CALL",
      "contractName": "DirectLiquidityAdder",
      "contractAddress": "0x3173e11d89e0154acd727466c810f58d86e991d4",
      "function": "addLiquidity((address,address,uint24,int24,address),int24,int24,int256,address)",
      "arguments": [
        "(0x0000000000000000000000000000000000000000, 0x31d0220469e10c4E71834a79b1f276d740d3768F, 500, 10, 0xeB72E2495640a4B83EBfc4618FD91cc9beB640c4)",
        "-230000",
        "-170000",
        "1000000000000",
        "0x25f75573799A3Aa37760D6bE4b862acA70599b49"
      ],
      "transaction": {
        "from": "0x25f75573799a3aa37760d6be4b862aca70599b49",
        "to": "0x3173e11d89e0154acd727466c810f58d86e991d4",
        "value": "0x16345785d8a0000",
        "input": "0x09c93b1e000000000000000000000000000000000000000000000000000000000000000000000000000000000000000031d0220469e10c4e71834a79b1f276d740d3768f00000000000000000000000000000000000000000000000000000000000001f4000000000000000000000000000000000000000000000000000000000000000a000000000000000000000000eb72e2495640a4b83ebfc4618fd91cc9beb640c4fffffffffffffffffffffffffffffffffffffffffffffffffffffffffffc7d90fffffffffffffffffffffffffffffffffffffffffffffffffffffffffffd67f0000000000000000000000000000000000000000000000000000000e8d4a5100000000000000000000000000025f75573799a3aa37760d6be4b862aca70599b49",
        "nonce": "0xdb",
        "chainId": "0x515"
      },
      "additionalContracts": [],
      "isFixedGasLimit": false
    }
  ],
  "receipts": [
    {
      "status": "0x1",
      "cumulativeGasUsed": "0xcf2c6",
      "logs": [],
      "logsBloom": "0x00000000000000000000000000000000000000000000000000000000000000000000000000000000000000000000000000000000000000000000000000000000000000000000000000000000000000000000000000000000000000000000000000000000000000000000000000000000000000000000000000000000000000000000000000000000000000000000000000000000000000000000000000000000000000000000000000000000000000000000000000000000000000000000000000000000000000000000000000000000000000000000000000000000000000000000000000000000000000000000000000000000000000000000000000000000",
      "type": "0x2",
      "transactionHash": "0x079e58a6831527209fd93da151e3731f3843e908e339a9b121a2df6e11d6fe74",
      "transactionIndex": "0x3",
      "blockHash": "0x0000000000000000000000000000000000000000000000000000000000000000",
      "blockNumber": "0x296e46b",
      "gasUsed": "0xa7892",
      "effectiveGasPrice": "0x7a121",
      "blobGasUsed": "0xc47c0",
      "from": "0x25f75573799a3aa37760d6be4b862aca70599b49",
      "to": null,
      "contractAddress": "0x3173e11d89e0154acd727466c810f58d86e991d4",
      "daFootprintGasScalar": "0x190",
      "l1BaseFeeScalar": "0x7d0",
      "l1BlobBaseFee": "0x3a2a9fc",
      "l1BlobBaseFeeScalar": "0xdbba0",
      "l1Fee": "0x2d150f5f4",
      "l1GasPrice": "0x3cfab706",
      "l1GasUsed": "0x7dcb"
    },
    {
      "status": "0x1",
      "cumulativeGasUsed": "0x352c1",
      "logs": [
        {
          "address": "0x31d0220469e10c4e71834a79b1f276d740d3768f",
          "topics": [
            "0x8c5be1e5ebec7d5bd14f71427d1e84f3dd0314c0f7b2291e5b200ac8c7c3b925",
            "0x00000000000000000000000025f75573799a3aa37760d6be4b862aca70599b49",
            "0x0000000000000000000000003173e11d89e0154acd727466c810f58d86e991d4"
          ],
          "data": "0x0000000000000000000000000000000000000000000000000000000011e1a300",
          "blockHash": "0x0000000000000000000000000000000000000000000000000000000000000000",
          "blockNumber": "0x296e470",
          "blockTimestamp": "0x698491bc",
          "transactionHash": "0x788ff35bbc79ecd57172328218d757035154c7fd752f05ed7545f16a03045187",
          "transactionIndex": "0x3",
          "logIndex": "0x1",
          "removed": false
        }
      ],
      "logsBloom": "0x00000000000100000000000000000000000000004000000000000000000000000000000000000000000000000000000000000000000000000000000000200000000000000000000000000000000000000000000000001000000000000000000000000000000000000000000000000000000000000000000000000000000000000000000000000000000000000400000000000000000000000000000000000000024000000001000080000000000000010000000000000000000000000000000000000000000000000000000000000000000000000000000000000000001000000010000000000000000000000000000000000000000000000000000000000000",
      "type": "0x2",
      "transactionHash": "0x788ff35bbc79ecd57172328218d757035154c7fd752f05ed7545f16a03045187",
      "transactionIndex": "0x3",
      "blockHash": "0x0000000000000000000000000000000000000000000000000000000000000000",
      "blockNumber": "0x296e470",
      "gasUsed": "0xd88d",
      "effectiveGasPrice": "0x7a121",
      "blobGasUsed": "0x9c40",
      "from": "0x25f75573799a3aa37760d6be4b862aca70599b49",
      "to": "0x31d0220469e10c4e71834a79b1f276d740d3768f",
      "contractAddress": null,
      "daFootprintGasScalar": "0x190",
      "l1BaseFeeScalar": "0x7d0",
      "l1BlobBaseFee": "0x3a2a9fc",
      "l1BlobBaseFeeScalar": "0xdbba0",
      "l1Fee": "0x2d150f5f4",
      "l1GasPrice": "0x3cfab706",
      "l1GasUsed": "0x640"
    },
    {
      "status": "0x1",
      "cumulativeGasUsed": "0xdf94e",
      "logs": [
        {
          "address": "0x00b036b58a818b1bc34d502d3fe730db729e62ac",
          "topics": [
            "0xf208f4912782fd25c7f114ca3723a2d5dd6f3bcc3ac8db5af63baa85f711d5ec",
            "0x001e0ac3a9fd6b4c23c0e471e8ae00294b2572ddd5835ad64da3e4d9aa6e2d55",
            "0x0000000000000000000000003173e11d89e0154acd727466c810f58d86e991d4"
          ],
          "data": "0xfffffffffffffffffffffffffffffffffffffffffffffffffffffffffffc7d90fffffffffffffffffffffffffffffffffffffffffffffffffffffffffffd67f0000000000000000000000000000000000000000000000000000000e8d4a510000000000000000000000000000000000000000000000000000000000000000000",
          "blockHash": "0x0000000000000000000000000000000000000000000000000000000000000000",
          "blockNumber": "0x296e475",
          "blockTimestamp": "0x698491c1",
          "transactionHash": "0x754d36ef59b07e8bff9e9c09c7589b8b98e029f3d6dd4057bbdf61219e21adbe",
          "transactionIndex": "0x7",
          "logIndex": "0x8",
          "removed": false
        }
      ],
      "logsBloom": "0x00000000000100000000000000000000000000000000000000200000000000000000000000000000000000000000000000000000000000000002000000000000000000000000000000000000000000000000000000000000000000000000000000000000000000000000000000000000000000000000000000000000000000000000000001000000000000000008000000000000000000000000000000000000004004000000000000000000000000000000000000000000000000000000000000000000040000000000000000000000000000000000000000000000001000000000000000000000000000000000000004000000000002000000000000000010",
      "type": "0x2",
      "transactionHash": "0x754d36ef59b07e8bff9e9c09c7589b8b98e029f3d6dd4057bbdf61219e21adbe",
      "transactionIndex": "0x7",
      "blockHash": "0x0000000000000000000000000000000000000000000000000000000000000000",
      "blockNumber": "0x296e475",
      "gasUsed": "0x4eea5",
      "effectiveGasPrice": "0x7a121",
      "blobGasUsed": "0xf870",
      "from": "0x25f75573799a3aa37760d6be4b862aca70599b49",
      "to": "0x3173e11d89e0154acd727466c810f58d86e991d4",
      "contractAddress": null,
      "daFootprintGasScalar": "0x190",
      "l1BaseFeeScalar": "0x7d0",
      "l1BlobBaseFee": "0x3a2a9fc",
      "l1BlobBaseFeeScalar": "0xdbba0",
      "l1Fee": "0x2d150f5f4",
      "l1GasPrice": "0x3cfab706",
      "l1GasUsed": "0x9f0"
    }
  ],
  "libraries": [],
  "pending": [],
  "returns": {},
  "timestamp": 1770295745920,
  "chain": 1301,
  "commit": "3d44038"
}