{
  "transactions": [
    {
      "hash": "0x11a5ff06878f00e8107c79b77c81586a2d70be2006adc810b1461bdd8053c7b0",
      "transactionType": "CALL",
      "contractName": null,
      "contractAddress": "0x00b036b58a818b1bc34d502d3fe730db729e62ac",
      "function": "initialize((address,address,uint24,int24,address),uint160)",
      "arguments": [
        "(0x48bA64b5312AFDfE4Fc96d8F03010A0a86e17963, 0x96aC37889DfDcd4dA0C898a5c9FB9D17ceD60b1B, 3000, 60, 0xc52c297f4f0d0556b1cd69b655F23df2513eC0C4)",
        "79228162514264337593543950336"
      ],
      "transaction": {
        "from": "0x25f75573799a3aa37760d6be4b862aca70599b49",
        "to": "0x00b036b58a818b1bc34d502d3fe730db729e62ac",
        "gas": "0x11721",
        "value": "0x0",
        "input": "0x6276cbbe00000000000000000000000048ba64b5312afdfe4fc96d8f03010a0a86e1796300000000000000000000000096ac37889dfdcd4da0c898a5c9fb9d17ced60b1b0000000000000000000000000000000000000000000000000000000000000bb8000000000000000000000000000000000000000000000000000000000000003c000000000000000000000000c52c297f4f0d0556b1cd69b655f23df2513ec0c40000000000000000000000000000000000000001000000000000000000000000",
        "nonce": "0x66",
        "chainId": "0x515"
      },
      "additionalContracts": [],
      "isFixedGasLimit": false
    }
  ],
  "receipts": [
    {
      "status": "0x1",
      "cumulativeGasUsed": "0x3444a",
      "logs": [
        {
          "address": "0x00b036b58a818b1bc34d502d3fe730db729e62ac",
          "topics": [
            "0xdd466e674ea557f56295e2d0218a125ea4b4f0f6f3307b95f85e6110838d6438",
            "0x00587da16e8b912efc26a01907f5543c68fb06196876e8ba4f49bcd57a26d267",
            "0x00000000000000000000000048ba64b5312afdfe4fc96d8f03010a0a86e17963",
            "0x00000000000000000000000096ac37889dfdcd4da0c898a5c9fb9d17ced60b1b"
          ],
          "data": "0x0000000000000000000000000000000000000000000000000000000000000bb8000000000000000000000000000000000000000000000000000000000000003c000000000000000000000000c52c297f4f0d0556b1cd69b655f23df2513ec0c400000000000000000000000000000000000000010000000000000000000000000000000000000000000000000000000000000000000000000000000000000000",
          "blockHash": "0x0000000000000000000000000000000000000000000000000000000000000000",
          "blockNumber": "0x295f661",
          "blockTimestamp": "0x6983a3ad",
          "transactionHash": "0x11a5ff06878f00e8107c79b77c81586a2d70be2006adc810b1461bdd8053c7b0",
          "transactionIndex": "0x3",
          "logIndex": "0x1",
          "removed": false
        }
      ],
      "logsBloom": "0x00000000000000000000000000008000000000000000000000000000000000000000000200000000000000000000100000000000000000000000000000000000020000000000000000000000000000000000000000002000000000000000000000000000020000000000000000000000000000000000000000000000000000000000000000000008000000000008001000000001000000200000000000200000000000000000000000000000004000000000000000000000000000000000000000000000000000000000000000000000000000000000000000000000000000000000000000000000000000000000000000000000000002000000000000000010",
      "type": "0x2",
      "transactionHash": "0x11a5ff06878f00e8107c79b77c81586a2d70be2006adc810b1461bdd8053c7b0",
      "transactionIndex": "0x3",
      "blockHash": "0x0000000000000000000000000000000000000000000000000000000000000000",
      "blockNumber": "0x295f661",
      "gasUsed": "0xca16",
      "effectiveGasPrice": "0x7a121",
      "blobGasUsed": "0xdac0",
      "from": "0x25f75573799a3aa37760d6be4b862aca70599b49",
      "to": "0x00b036b58a818b1bc34d502d3fe730db729e62ac",
      "contractAddress": null,
      "daFootprintGasScalar": "0x190",
      "l1BaseFeeScalar": "0x7d0",
      "l1BlobBaseFee": "0x383f5ce",
      "l1BlobBaseFeeScalar": "0xdbba0",
      "l1Fee": "0x2b983ceff",
      "l1GasPrice": "0x3af7740d",
      "l1GasUsed": "0x8c9"
    }
  ],
  "libraries": [],
  "pending": [],
  "returns": {},
  "timestamp": 1770234796488,
  "chain": 1301,
  "commit": "21e8e16"
}